{
	"contracts/KipuBank.sol": {
		"KipuBank": {
			"abi": [
				{
					"inputs": [
						{
							"internalType": "uint128",
							"name": "_banckCap",
							"type": "uint128"
						}
					],
					"stateMutability": "nonpayable",
					"type": "constructor"
				},
				{
					"inputs": [
						{
							"internalType": "address",
							"name": "to",
							"type": "address"
						},
						{
							"internalType": "uint256",
							"name": "amount",
							"type": "uint256"
						}
					],
					"name": "DepositNotAllowed",
					"type": "error"
				},
				{
					"inputs": [
						{
							"internalType": "address",
							"name": "to",
							"type": "address"
						},
						{
							"internalType": "uint256",
							"name": "amount",
							"type": "uint256"
						}
					],
					"name": "ExtractionNotAllowed",
					"type": "error"
				},
				{
					"inputs": [
						{
							"internalType": "address",
							"name": "to",
							"type": "address"
						},
						{
							"internalType": "uint256",
							"name": "amount",
							"type": "uint256"
						},
						{
							"internalType": "bytes",
							"name": "errorData",
							"type": "bytes"
						}
					],
					"name": "ExtractionReverted",
					"type": "error"
				},
				{
					"inputs": [
						{
							"internalType": "address",
							"name": "user",
							"type": "address"
						}
					],
					"name": "NotAnAuditor",
					"type": "error"
				},
				{
					"anonymous": false,
					"inputs": [
						{
							"indexed": false,
							"internalType": "address",
							"name": "from",
							"type": "address"
						},
						{
							"indexed": false,
							"internalType": "uint256",
							"name": "amount",
							"type": "uint256"
						}
					],
					"name": "DepositRequest",
					"type": "event"
				},
				{
					"anonymous": false,
					"inputs": [
						{
							"indexed": false,
							"internalType": "address",
							"name": "from",
							"type": "address"
						},
						{
							"indexed": false,
							"internalType": "uint256",
							"name": "amount",
							"type": "uint256"
						}
					],
					"name": "Deposited",
					"type": "event"
				},
				{
					"anonymous": false,
					"inputs": [
						{
							"indexed": false,
							"internalType": "address",
							"name": "to",
							"type": "address"
						},
						{
							"indexed": false,
							"internalType": "uint256",
							"name": "amount",
							"type": "uint256"
						}
					],
					"name": "Extracted",
					"type": "event"
				},
				{
					"anonymous": false,
					"inputs": [
						{
							"indexed": false,
							"internalType": "address",
							"name": "to",
							"type": "address"
						},
						{
							"indexed": false,
							"internalType": "uint256",
							"name": "amount",
							"type": "uint256"
						}
					],
					"name": "ExtractionRequest",
					"type": "event"
				},
				{
					"inputs": [],
					"name": "deposit",
					"outputs": [],
					"stateMutability": "payable",
					"type": "function"
				},
				{
					"inputs": [],
					"name": "getBalance",
					"outputs": [
						{
							"internalType": "uint256",
							"name": "balance_",
							"type": "uint256"
						}
					],
					"stateMutability": "view",
					"type": "function"
				},
				{
					"inputs": [
						{
							"internalType": "address",
							"name": "user_",
							"type": "address"
						}
					],
					"name": "getBalance",
					"outputs": [
						{
							"internalType": "uint256",
							"name": "balance_",
							"type": "uint256"
						}
					],
					"stateMutability": "view",
					"type": "function"
				},
				{
					"inputs": [],
					"name": "getDeposits",
					"outputs": [
						{
							"internalType": "uint256",
							"name": "deposits_",
							"type": "uint256"
						}
					],
					"stateMutability": "view",
					"type": "function"
				},
				{
					"inputs": [
						{
							"internalType": "address",
							"name": "user_",
							"type": "address"
						}
					],
					"name": "getDeposits",
					"outputs": [
						{
							"internalType": "uint256",
							"name": "deposits_",
							"type": "uint256"
						}
					],
					"stateMutability": "view",
					"type": "function"
				},
				{
					"inputs": [
						{
							"internalType": "address",
							"name": "user_",
							"type": "address"
						}
					],
					"name": "getWithdrawals",
					"outputs": [
						{
							"internalType": "uint256",
							"name": "withdrawals_",
							"type": "uint256"
						}
					],
					"stateMutability": "view",
					"type": "function"
				},
				{
					"inputs": [],
					"name": "getWithdrawals",
					"outputs": [
						{
							"internalType": "uint256",
							"name": "withdrawals_",
							"type": "uint256"
						}
					],
					"stateMutability": "view",
					"type": "function"
				},
				{
					"inputs": [],
					"name": "s_bankCap",
					"outputs": [
						{
							"internalType": "uint128",
							"name": "",
							"type": "uint128"
						}
					],
					"stateMutability": "view",
					"type": "function"
				},
				{
					"inputs": [],
					"name": "s_owner",
					"outputs": [
						{
							"internalType": "address",
							"name": "",
							"type": "address"
						}
					],
					"stateMutability": "view",
					"type": "function"
				},
				{
					"inputs": [],
					"name": "s_withdrawLimit",
					"outputs": [
						{
							"internalType": "uint128",
							"name": "",
							"type": "uint128"
						}
					],
					"stateMutability": "view",
					"type": "function"
				},
				{
					"inputs": [
						{
							"internalType": "uint256",
							"name": "amount_",
							"type": "uint256"
						}
					],
					"name": "withdraw",
					"outputs": [],
					"stateMutability": "nonpayable",
					"type": "function"
				},
				{
					"stateMutability": "payable",
					"type": "receive"
				}
			],
			"devdoc": {
				"author": "Erik Borgnia",
				"kind": "dev",
				"methods": {
					"getBalance(address)": {
						"details": "Esta función garantiza que toda la información es auditable",
						"params": {
							"user_": "Usuario que se quiere auditar"
						}
					},
					"getDeposits(address)": {
						"details": "Esta función garantiza que toda la información es auditable",
						"params": {
							"user_": "Usuario que se quiere auditar"
						}
					},
					"getWithdrawals(address)": {
						"details": "Esta función garantiza que toda la información es auditable",
						"params": {
							"user_": "Usuario que se quiere auditar"
						}
					},
					"withdraw(uint256)": {
						"details": "Sólo se puede depositar un valor mayor a 0, siempre que no se supere el bankCap",
						"params": {
							"amount_": "Cantidad que se quiere extraer. Debe ser <= al balance y al límite de extracción"
						}
					}
				},
				"title": "KipuBank",
				"version": 1
			},
			"evm": {
				"assembly": "    /* \"contracts/KipuBank.sol\":297:6673  contract KipuBank{... */\n  mstore(0x40, 0xe0)\n    /* \"contracts/KipuBank.sol\":1032:1051  1000000000000000000 */\n  0x0de0b6b3a7640000\n    /* \"contracts/KipuBank.sol\":989:1051  uint128 public immutable s_withdrawLimit = 1000000000000000000 */\n  0xffffffffffffffffffffffffffffffff\n  and\n  0xc0\n  swap1\n  0xffffffffffffffffffffffffffffffff\n  and\n  dup2\n  mstore\n  pop\n    /* \"contracts/KipuBank.sol\":2533:2635  constructor(uint128 _banckCap) {... */\n  callvalue\n  dup1\n  iszero\n  tag_1\n  jumpi\n  revert(0x00, 0x00)\ntag_1:\n  pop\n  mload(0x40)\n  sub(codesize, bytecodeSize)\n  dup1\n  bytecodeSize\n  dup4\n  codecopy\n  dup2\n  dup2\n  add\n  0x40\n  mstore\n  dup2\n  add\n  swap1\n  tag_2\n  swap2\n  swap1\n  tag_3\n  jump\t// in\ntag_2:\n    /* \"contracts/KipuBank.sol\":2587:2596  _banckCap */\n  dup1\n    /* \"contracts/KipuBank.sol\":2575:2596  s_bankCap = _banckCap */\n  0xffffffffffffffffffffffffffffffff\n  and\n  0xa0\n  dup2\n  0xffffffffffffffffffffffffffffffff\n  and\n  dup2\n  mstore\n  pop\n  pop\n    /* \"contracts/KipuBank.sol\":2617:2627  msg.sender */\n  caller\n    /* \"contracts/KipuBank.sol\":2607:2627  s_owner = msg.sender */\n  0xffffffffffffffffffffffffffffffffffffffff\n  and\n  0x80\n  dup2\n  0xffffffffffffffffffffffffffffffffffffffff\n  and\n  dup2\n  mstore\n  pop\n  pop\n    /* \"contracts/KipuBank.sol\":2533:2635  constructor(uint128 _banckCap) {... */\n  pop\n    /* \"contracts/KipuBank.sol\":297:6673  contract KipuBank{... */\n  jump(tag_6)\n    /* \"#utility.yul\":88:205   */\ntag_8:\n    /* \"#utility.yul\":197:198   */\n  0x00\n    /* \"#utility.yul\":194:195   */\n  0x00\n    /* \"#utility.yul\":187:199   */\n  revert\n    /* \"#utility.yul\":334:452   */\ntag_10:\n    /* \"#utility.yul\":371:378   */\n  0x00\n    /* \"#utility.yul\":411:445   */\n  0xffffffffffffffffffffffffffffffff\n    /* \"#utility.yul\":404:409   */\n  dup3\n    /* \"#utility.yul\":400:446   */\n  and\n    /* \"#utility.yul\":389:446   */\n  swap1\n  pop\n    /* \"#utility.yul\":334:452   */\n  swap2\n  swap1\n  pop\n  jump\t// out\n    /* \"#utility.yul\":458:580   */\ntag_11:\n    /* \"#utility.yul\":531:555   */\n  tag_19\n    /* \"#utility.yul\":549:554   */\n  dup2\n    /* \"#utility.yul\":531:555   */\n  tag_10\n  jump\t// in\ntag_19:\n    /* \"#utility.yul\":524:529   */\n  dup2\n    /* \"#utility.yul\":521:556   */\n  eq\n    /* \"#utility.yul\":511:574   */\n  tag_20\n  jumpi\n    /* \"#utility.yul\":570:571   */\n  0x00\n    /* \"#utility.yul\":567:568   */\n  0x00\n    /* \"#utility.yul\":560:572   */\n  revert\n    /* \"#utility.yul\":511:574   */\ntag_20:\n    /* \"#utility.yul\":458:580   */\n  pop\n  jump\t// out\n    /* \"#utility.yul\":586:729   */\ntag_12:\n    /* \"#utility.yul\":643:648   */\n  0x00\n    /* \"#utility.yul\":674:680   */\n  dup2\n    /* \"#utility.yul\":668:681   */\n  mload\n    /* \"#utility.yul\":659:681   */\n  swap1\n  pop\n    /* \"#utility.yul\":690:723   */\n  tag_22\n    /* \"#utility.yul\":717:722   */\n  dup2\n    /* \"#utility.yul\":690:723   */\n  tag_11\n  jump\t// in\ntag_22:\n    /* \"#utility.yul\":586:729   */\n  swap3\n  swap2\n  pop\n  pop\n  jump\t// out\n    /* \"#utility.yul\":735:1086   */\ntag_3:\n    /* \"#utility.yul\":805:811   */\n  0x00\n    /* \"#utility.yul\":854:856   */\n  0x20\n    /* \"#utility.yul\":842:851   */\n  dup3\n    /* \"#utility.yul\":833:840   */\n  dup5\n    /* \"#utility.yul\":829:852   */\n  sub\n    /* \"#utility.yul\":825:857   */\n  slt\n    /* \"#utility.yul\":822:941   */\n  iszero\n  tag_24\n  jumpi\n    /* \"#utility.yul\":860:939   */\n  tag_25\n  tag_8\n  jump\t// in\ntag_25:\n    /* \"#utility.yul\":822:941   */\ntag_24:\n    /* \"#utility.yul\":980:981   */\n  0x00\n    /* \"#utility.yul\":1005:1069   */\n  tag_26\n    /* \"#utility.yul\":1061:1068   */\n  dup5\n    /* \"#utility.yul\":1052:1058   */\n  dup3\n    /* \"#utility.yul\":1041:1050   */\n  dup6\n    /* \"#utility.yul\":1037:1059   */\n  add\n    /* \"#utility.yul\":1005:1069   */\n  tag_12\n  jump\t// in\ntag_26:\n    /* \"#utility.yul\":995:1069   */\n  swap2\n  pop\n    /* \"#utility.yul\":951:1079   */\n  pop\n    /* \"#utility.yul\":735:1086   */\n  swap3\n  swap2\n  pop\n  pop\n  jump\t// out\n    /* \"contracts/KipuBank.sol\":297:6673  contract KipuBank{... */\ntag_6:\n  mload(0x80)\n  mload(0xa0)\n  mload(0xc0)\n  codecopy(0x00, dataOffset(sub_0), dataSize(sub_0))\n  0x00\n  assignImmutable(\"0x58a280f74f57bf051c40f060139dc747e015be52f68c57e2c4ab2e4bd4146f43\")\n  0x00\n  assignImmutable(\"0x1572b593c53d839d80004aa4b8c51211864104f06ace9e22be9c4365b50655ea\")\n  0x00\n  assignImmutable(\"0xceebf77a833b30520287ddd9478ff51abbdffa30aa90a8d655dba0e8a79ce0c1\")\n  return(0x00, dataSize(sub_0))\nstop\n\nsub_0: assembly {\n        /* \"contracts/KipuBank.sol\":297:6673  contract KipuBank{... */\n      mstore(0x40, 0x80)\n      jumpi(tag_1, lt(calldatasize, 0x04))\n      shr(0xe0, calldataload(0x00))\n      dup1\n      0x7f86ee43\n      gt\n      tag_14\n      jumpi\n      dup1\n      0x7f86ee43\n      eq\n      tag_8\n      jumpi\n      dup1\n      0x80ef10ed\n      eq\n      tag_9\n      jumpi\n      dup1\n      0x94f649dd\n      eq\n      tag_10\n      jumpi\n      dup1\n      0xd0e30db0\n      eq\n      tag_11\n      jumpi\n      dup1\n      0xe3978240\n      eq\n      tag_12\n      jumpi\n      dup1\n      0xf8b2cb4f\n      eq\n      tag_13\n      jumpi\n      jump(tag_2)\n    tag_14:\n      dup1\n      0x12065fe0\n      eq\n      tag_3\n      jumpi\n      dup1\n      0x2e1a7d4d\n      eq\n      tag_4\n      jumpi\n      dup1\n      0x3a2b643a\n      eq\n      tag_5\n      jumpi\n      dup1\n      0x50d6c1e8\n      eq\n      tag_6\n      jumpi\n      dup1\n      0x6b149d87\n      eq\n      tag_7\n      jumpi\n      jump(tag_2)\n    tag_1:\n      jumpi(tag_2, calldatasize)\n        /* \"contracts/KipuBank.sol\":2844:2853  deposit() */\n      tag_17\n        /* \"contracts/KipuBank.sol\":2844:2851  deposit */\n      tag_18\n        /* \"contracts/KipuBank.sol\":2844:2853  deposit() */\n      jump\t// in\n    tag_17:\n        /* \"contracts/KipuBank.sol\":297:6673  contract KipuBank{... */\n      stop\n    tag_2:\n      revert(0x00, 0x00)\n        /* \"contracts/KipuBank.sol\":3547:3658  function getBalance() external view returns(uint balance_) {... */\n    tag_3:\n      callvalue\n      dup1\n      iszero\n      tag_19\n      jumpi\n      revert(0x00, 0x00)\n    tag_19:\n      pop\n      tag_20\n      tag_21\n      jump\t// in\n    tag_20:\n      mload(0x40)\n      tag_22\n      swap2\n      swap1\n      tag_23\n      jump\t// in\n    tag_22:\n      mload(0x40)\n      dup1\n      swap2\n      sub\n      swap1\n      return\n        /* \"contracts/KipuBank.sol\":5671:6222  function withdraw(uint amount_) public {... */\n    tag_4:\n      callvalue\n      dup1\n      iszero\n      tag_24\n      jumpi\n      revert(0x00, 0x00)\n    tag_24:\n      pop\n      tag_25\n      0x04\n      dup1\n      calldatasize\n      sub\n      dup2\n      add\n      swap1\n      tag_26\n      swap2\n      swap1\n      tag_27\n      jump\t// in\n    tag_26:\n      tag_28\n      jump\t// in\n    tag_25:\n      stop\n        /* \"contracts/KipuBank.sol\":5199:5397  function getWithdrawals(address user_) external view returns(uint withdrawals_) {... */\n    tag_5:\n      callvalue\n      dup1\n      iszero\n      tag_29\n      jumpi\n      revert(0x00, 0x00)\n    tag_29:\n      pop\n      tag_30\n      0x04\n      dup1\n      calldatasize\n      sub\n      dup2\n      add\n      swap1\n      tag_31\n      swap2\n      swap1\n      tag_32\n      jump\t// in\n    tag_31:\n      tag_33\n      jump\t// in\n    tag_30:\n      mload(0x40)\n      tag_34\n      swap2\n      swap1\n      tag_23\n      jump\t// in\n    tag_34:\n      mload(0x40)\n      dup1\n      swap2\n      sub\n      swap1\n      return\n        /* \"contracts/KipuBank.sol\":3988:4114  function getWithdrawals() external view returns(uint withdrawals_) {... */\n    tag_6:\n      callvalue\n      dup1\n      iszero\n      tag_35\n      jumpi\n      revert(0x00, 0x00)\n    tag_35:\n      pop\n      tag_36\n      tag_37\n      jump\t// in\n    tag_36:\n      mload(0x40)\n      tag_38\n      swap2\n      swap1\n      tag_23\n      jump\t// in\n    tag_38:\n      mload(0x40)\n      dup1\n      swap2\n      sub\n      swap1\n      return\n        /* \"contracts/KipuBank.sol\":3765:3879  function getDeposits() external view returns(uint deposits_) {... */\n    tag_7:\n      callvalue\n      dup1\n      iszero\n      tag_39\n      jumpi\n      revert(0x00, 0x00)\n    tag_39:\n      pop\n      tag_40\n      tag_41\n      jump\t// in\n    tag_40:\n      mload(0x40)\n      tag_42\n      swap2\n      swap1\n      tag_23\n      jump\t// in\n    tag_42:\n      mload(0x40)\n      dup1\n      swap2\n      sub\n      swap1\n      return\n        /* \"contracts/KipuBank.sol\":989:1051  uint128 public immutable s_withdrawLimit = 1000000000000000000 */\n    tag_8:\n      callvalue\n      dup1\n      iszero\n      tag_43\n      jumpi\n      revert(0x00, 0x00)\n    tag_43:\n      pop\n      tag_44\n      tag_45\n      jump\t// in\n    tag_44:\n      mload(0x40)\n      tag_46\n      swap2\n      swap1\n      tag_47\n      jump\t// in\n    tag_46:\n      mload(0x40)\n      dup1\n      swap2\n      sub\n      swap1\n      return\n        /* \"contracts/KipuBank.sol\":898:932  uint128 public immutable s_bankCap */\n    tag_9:\n      callvalue\n      dup1\n      iszero\n      tag_48\n      jumpi\n      revert(0x00, 0x00)\n    tag_48:\n      pop\n      tag_49\n      tag_50\n      jump\t// in\n    tag_49:\n      mload(0x40)\n      tag_51\n      swap2\n      swap1\n      tag_47\n      jump\t// in\n    tag_51:\n      mload(0x40)\n      dup1\n      swap2\n      sub\n      swap1\n      return\n        /* \"contracts/KipuBank.sol\":4769:4955  function getDeposits(address user_) external view returns(uint deposits_) {... */\n    tag_10:\n      callvalue\n      dup1\n      iszero\n      tag_52\n      jumpi\n      revert(0x00, 0x00)\n    tag_52:\n      pop\n      tag_53\n      0x04\n      dup1\n      calldatasize\n      sub\n      dup2\n      add\n      swap1\n      tag_54\n      swap2\n      swap1\n      tag_32\n      jump\t// in\n    tag_54:\n      tag_55\n      jump\t// in\n    tag_53:\n      mload(0x40)\n      tag_56\n      swap2\n      swap1\n      tag_23\n      jump\t// in\n    tag_56:\n      mload(0x40)\n      dup1\n      swap2\n      sub\n      swap1\n      return\n        /* \"contracts/KipuBank.sol\":3030:3446  function deposit() public payable {... */\n    tag_11:\n      tag_57\n      tag_18\n      jump\t// in\n    tag_57:\n      stop\n        /* \"contracts/KipuBank.sol\":376:408  address public immutable s_owner */\n    tag_12:\n      callvalue\n      dup1\n      iszero\n      tag_58\n      jumpi\n      revert(0x00, 0x00)\n    tag_58:\n      pop\n      tag_59\n      tag_60\n      jump\t// in\n    tag_59:\n      mload(0x40)\n      tag_61\n      swap2\n      swap1\n      tag_62\n      jump\t// in\n    tag_61:\n      mload(0x40)\n      dup1\n      swap2\n      sub\n      swap1\n      return\n        /* \"contracts/KipuBank.sol\":4344:4527  function getBalance(address user_) external view returns(uint balance_) {... */\n    tag_13:\n      callvalue\n      dup1\n      iszero\n      tag_63\n      jumpi\n      revert(0x00, 0x00)\n    tag_63:\n      pop\n      tag_64\n      0x04\n      dup1\n      calldatasize\n      sub\n      dup2\n      add\n      swap1\n      tag_65\n      swap2\n      swap1\n      tag_32\n      jump\t// in\n    tag_65:\n      tag_66\n      jump\t// in\n    tag_64:\n      mload(0x40)\n      tag_67\n      swap2\n      swap1\n      tag_23\n      jump\t// in\n    tag_67:\n      mload(0x40)\n      dup1\n      swap2\n      sub\n      swap1\n      return\n        /* \"contracts/KipuBank.sol\":3030:3446  function deposit() public payable {... */\n    tag_18:\n        /* \"contracts/KipuBank.sol\":3080:3117  DepositRequest(msg.sender, msg.value) */\n      0x55896b30a78fc55b78937f8014dde3f0035e9d37a4f6ac36841fb8b62f7e2b13\n        /* \"contracts/KipuBank.sol\":3095:3105  msg.sender */\n      caller\n        /* \"contracts/KipuBank.sol\":3107:3116  msg.value */\n      callvalue\n        /* \"contracts/KipuBank.sol\":3080:3117  DepositRequest(msg.sender, msg.value) */\n      mload(0x40)\n      tag_69\n      swap3\n      swap2\n      swap1\n      tag_70\n      jump\t// in\n    tag_69:\n      mload(0x40)\n      dup1\n      swap2\n      sub\n      swap1\n      log1\n        /* \"contracts/KipuBank.sol\":3148:3149  0 */\n      0x00\n        /* \"contracts/KipuBank.sol\":3136:3145  msg.value */\n      callvalue\n        /* \"contracts/KipuBank.sol\":3136:3149  msg.value > 0 */\n      gt\n        /* \"contracts/KipuBank.sol\":3169:3179  msg.sender */\n      caller\n        /* \"contracts/KipuBank.sol\":3180:3189  msg.value */\n      callvalue\n        /* \"contracts/KipuBank.sol\":3128:3191  require(msg.value > 0, DepositNotAllowed(msg.sender,msg.value)) */\n      swap1\n      swap2\n      tag_71\n      jumpi\n      mload(0x40)\n      0xacb26d8e00000000000000000000000000000000000000000000000000000000\n      dup2\n      mstore\n      0x04\n      add\n      tag_72\n      swap3\n      swap2\n      swap1\n      tag_70\n      jump\t// in\n    tag_72:\n      mload(0x40)\n      dup1\n      swap2\n      sub\n      swap1\n      revert\n    tag_71:\n      pop\n      pop\n        /* \"contracts/KipuBank.sol\":3246:3255  s_bankCap */\n      immutable(\"0x1572b593c53d839d80004aa4b8c51211864104f06ace9e22be9c4365b50655ea\")\n        /* \"contracts/KipuBank.sol\":3210:3255  msg.value+s_balances[msg.sender] <= s_bankCap */\n      0xffffffffffffffffffffffffffffffff\n      and\n        /* \"contracts/KipuBank.sol\":3220:3230  s_balances */\n      0x00\n        /* \"contracts/KipuBank.sol\":3220:3242  s_balances[msg.sender] */\n      0x00\n        /* \"contracts/KipuBank.sol\":3231:3241  msg.sender */\n      caller\n        /* \"contracts/KipuBank.sol\":3220:3242  s_balances[msg.sender] */\n      0xffffffffffffffffffffffffffffffffffffffff\n      and\n      0xffffffffffffffffffffffffffffffffffffffff\n      and\n      dup2\n      mstore\n      0x20\n      add\n      swap1\n      dup2\n      mstore\n      0x20\n      add\n      0x00\n      keccak256\n      sload\n        /* \"contracts/KipuBank.sol\":3210:3219  msg.value */\n      callvalue\n        /* \"contracts/KipuBank.sol\":3210:3242  msg.value+s_balances[msg.sender] */\n      tag_73\n      swap2\n      swap1\n      tag_74\n      jump\t// in\n    tag_73:\n        /* \"contracts/KipuBank.sol\":3210:3255  msg.value+s_balances[msg.sender] <= s_bankCap */\n      gt\n      iszero\n        /* \"contracts/KipuBank.sol\":3275:3285  msg.sender */\n      caller\n        /* \"contracts/KipuBank.sol\":3286:3295  msg.value */\n      callvalue\n        /* \"contracts/KipuBank.sol\":3202:3297  require(msg.value+s_balances[msg.sender] <= s_bankCap, DepositNotAllowed(msg.sender,msg.value)) */\n      swap1\n      swap2\n      tag_75\n      jumpi\n      mload(0x40)\n      0xacb26d8e00000000000000000000000000000000000000000000000000000000\n      dup2\n      mstore\n      0x04\n      add\n      tag_76\n      swap3\n      swap2\n      swap1\n      tag_70\n      jump\t// in\n    tag_76:\n      mload(0x40)\n      dup1\n      swap2\n      sub\n      swap1\n      revert\n    tag_75:\n      pop\n      pop\n        /* \"contracts/KipuBank.sol\":3336:3345  msg.value */\n      callvalue\n        /* \"contracts/KipuBank.sol\":3310:3320  s_balances */\n      0x00\n        /* \"contracts/KipuBank.sol\":3310:3332  s_balances[msg.sender] */\n      0x00\n        /* \"contracts/KipuBank.sol\":3321:3331  msg.sender */\n      caller\n        /* \"contracts/KipuBank.sol\":3310:3332  s_balances[msg.sender] */\n      0xffffffffffffffffffffffffffffffffffffffff\n      and\n      0xffffffffffffffffffffffffffffffffffffffff\n      and\n      dup2\n      mstore\n      0x20\n      add\n      swap1\n      dup2\n      mstore\n      0x20\n      add\n      0x00\n      keccak256\n      0x00\n        /* \"contracts/KipuBank.sol\":3310:3345  s_balances[msg.sender] += msg.value */\n      dup3\n      dup3\n      sload\n      tag_77\n      swap2\n      swap1\n      tag_74\n      jump\t// in\n    tag_77:\n      swap3\n      pop\n      pop\n      dup2\n      swap1\n      sstore\n      pop\n        /* \"contracts/KipuBank.sol\":3356:3366  s_deposits */\n      0x01\n        /* \"contracts/KipuBank.sol\":3356:3378  s_deposits[msg.sender] */\n      0x00\n        /* \"contracts/KipuBank.sol\":3367:3377  msg.sender */\n      caller\n        /* \"contracts/KipuBank.sol\":3356:3378  s_deposits[msg.sender] */\n      0xffffffffffffffffffffffffffffffffffffffff\n      and\n      0xffffffffffffffffffffffffffffffffffffffff\n      and\n      dup2\n      mstore\n      0x20\n      add\n      swap1\n      dup2\n      mstore\n      0x20\n      add\n      0x00\n      keccak256\n      0x00\n        /* \"contracts/KipuBank.sol\":3356:3380  s_deposits[msg.sender]++ */\n      dup2\n      dup2\n      swap1\n      sload\n      swap1\n      0x0100\n      exp\n      swap1\n      div\n      0xffffffff\n      and\n      dup1\n      swap3\n      swap2\n      swap1\n      tag_78\n      swap1\n      tag_79\n      jump\t// in\n    tag_78:\n      swap2\n      swap1\n      0x0100\n      exp\n      dup2\n      sload\n      dup2\n      0xffffffff\n      mul\n      not\n      and\n      swap1\n      dup4\n      0xffffffff\n      and\n      mul\n      or\n      swap1\n      sstore\n      pop\n      pop\n        /* \"contracts/KipuBank.sol\":3406:3438  Deposited(msg.sender, msg.value) */\n      0x2da466a7b24304f47e87fa2e1e5a81b9831ce54fec19055ce277ca2f39ba42c4\n        /* \"contracts/KipuBank.sol\":3416:3426  msg.sender */\n      caller\n        /* \"contracts/KipuBank.sol\":3428:3437  msg.value */\n      callvalue\n        /* \"contracts/KipuBank.sol\":3406:3438  Deposited(msg.sender, msg.value) */\n      mload(0x40)\n      tag_80\n      swap3\n      swap2\n      swap1\n      tag_70\n      jump\t// in\n    tag_80:\n      mload(0x40)\n      dup1\n      swap2\n      sub\n      swap1\n      log1\n        /* \"contracts/KipuBank.sol\":3030:3446  function deposit() public payable {... */\n      jump\t// out\n        /* \"contracts/KipuBank.sol\":3547:3658  function getBalance() external view returns(uint balance_) {... */\n    tag_21:\n        /* \"contracts/KipuBank.sol\":3591:3604  uint balance_ */\n      0x00\n        /* \"contracts/KipuBank.sol\":3628:3638  s_balances */\n      0x00\n        /* \"contracts/KipuBank.sol\":3628:3650  s_balances[msg.sender] */\n      0x00\n        /* \"contracts/KipuBank.sol\":3639:3649  msg.sender */\n      caller\n        /* \"contracts/KipuBank.sol\":3628:3650  s_balances[msg.sender] */\n      0xffffffffffffffffffffffffffffffffffffffff\n      and\n      0xffffffffffffffffffffffffffffffffffffffff\n      and\n      dup2\n      mstore\n      0x20\n      add\n      swap1\n      dup2\n      mstore\n      0x20\n      add\n      0x00\n      keccak256\n      sload\n        /* \"contracts/KipuBank.sol\":3617:3650  balance_ = s_balances[msg.sender] */\n      swap1\n      pop\n        /* \"contracts/KipuBank.sol\":3547:3658  function getBalance() external view returns(uint balance_) {... */\n      swap1\n      jump\t// out\n        /* \"contracts/KipuBank.sol\":5671:6222  function withdraw(uint amount_) public {... */\n    tag_28:\n        /* \"contracts/KipuBank.sol\":5726:5764  ExtractionRequest(msg.sender, amount_) */\n      0x3175035b120f22d7e7407b9f06f080ef0dbba46bb02a00e41a7b070b43cc8db9\n        /* \"contracts/KipuBank.sol\":5744:5754  msg.sender */\n      caller\n        /* \"contracts/KipuBank.sol\":5756:5763  amount_ */\n      dup3\n        /* \"contracts/KipuBank.sol\":5726:5764  ExtractionRequest(msg.sender, amount_) */\n      mload(0x40)\n      tag_83\n      swap3\n      swap2\n      swap1\n      tag_70\n      jump\t// in\n    tag_83:\n      mload(0x40)\n      dup1\n      swap2\n      sub\n      swap1\n      log1\n        /* \"contracts/KipuBank.sol\":5793:5794  0 */\n      0x00\n        /* \"contracts/KipuBank.sol\":5783:5790  amount_ */\n      dup2\n        /* \"contracts/KipuBank.sol\":5783:5794  amount_ > 0 */\n      gt\n        /* \"contracts/KipuBank.sol\":5817:5827  msg.sender */\n      caller\n        /* \"contracts/KipuBank.sol\":5829:5836  amount_ */\n      dup3\n        /* \"contracts/KipuBank.sol\":5775:5838  require(amount_ > 0, ExtractionNotAllowed(msg.sender, amount_)) */\n      swap1\n      swap2\n      tag_84\n      jumpi\n      mload(0x40)\n      0xf607410700000000000000000000000000000000000000000000000000000000\n      dup2\n      mstore\n      0x04\n      add\n      tag_85\n      swap3\n      swap2\n      swap1\n      tag_70\n      jump\t// in\n    tag_85:\n      mload(0x40)\n      dup1\n      swap2\n      sub\n      swap1\n      revert\n    tag_84:\n      pop\n      pop\n        /* \"contracts/KipuBank.sol\":5868:5878  s_balances */\n      0x00\n        /* \"contracts/KipuBank.sol\":5868:5890  s_balances[msg.sender] */\n      0x00\n        /* \"contracts/KipuBank.sol\":5879:5889  msg.sender */\n      caller\n        /* \"contracts/KipuBank.sol\":5868:5890  s_balances[msg.sender] */\n      0xffffffffffffffffffffffffffffffffffffffff\n      and\n      0xffffffffffffffffffffffffffffffffffffffff\n      and\n      dup2\n      mstore\n      0x20\n      add\n      swap1\n      dup2\n      mstore\n      0x20\n      add\n      0x00\n      keccak256\n      sload\n        /* \"contracts/KipuBank.sol\":5857:5864  amount_ */\n      dup2\n        /* \"contracts/KipuBank.sol\":5857:5890  amount_ <= s_balances[msg.sender] */\n      gt\n      iszero\n        /* \"contracts/KipuBank.sol\":5913:5923  msg.sender */\n      caller\n        /* \"contracts/KipuBank.sol\":5925:5932  amount_ */\n      dup3\n        /* \"contracts/KipuBank.sol\":5849:5934  require(amount_ <= s_balances[msg.sender], ExtractionNotAllowed(msg.sender, amount_)) */\n      swap1\n      swap2\n      tag_86\n      jumpi\n      mload(0x40)\n      0xf607410700000000000000000000000000000000000000000000000000000000\n      dup2\n      mstore\n      0x04\n      add\n      tag_87\n      swap3\n      swap2\n      swap1\n      tag_70\n      jump\t// in\n    tag_87:\n      mload(0x40)\n      dup1\n      swap2\n      sub\n      swap1\n      revert\n    tag_86:\n      pop\n      pop\n        /* \"contracts/KipuBank.sol\":5964:5979  s_withdrawLimit */\n      immutable(\"0x58a280f74f57bf051c40f060139dc747e015be52f68c57e2c4ab2e4bd4146f43\")\n        /* \"contracts/KipuBank.sol\":5953:5979  amount_ <= s_withdrawLimit */\n      0xffffffffffffffffffffffffffffffff\n      and\n        /* \"contracts/KipuBank.sol\":5953:5960  amount_ */\n      dup2\n        /* \"contracts/KipuBank.sol\":5953:5979  amount_ <= s_withdrawLimit */\n      gt\n      iszero\n        /* \"contracts/KipuBank.sol\":6002:6012  msg.sender */\n      caller\n        /* \"contracts/KipuBank.sol\":6014:6021  amount_ */\n      dup3\n        /* \"contracts/KipuBank.sol\":5945:6023  require(amount_ <= s_withdrawLimit, ExtractionNotAllowed(msg.sender, amount_)) */\n      swap1\n      swap2\n      tag_88\n      jumpi\n      mload(0x40)\n      0xf607410700000000000000000000000000000000000000000000000000000000\n      dup2\n      mstore\n      0x04\n      add\n      tag_89\n      swap3\n      swap2\n      swap1\n      tag_70\n      jump\t// in\n    tag_89:\n      mload(0x40)\n      dup1\n      swap2\n      sub\n      swap1\n      revert\n    tag_88:\n      pop\n      pop\n        /* \"contracts/KipuBank.sol\":6062:6069  amount_ */\n      dup1\n        /* \"contracts/KipuBank.sol\":6036:6046  s_balances */\n      0x00\n        /* \"contracts/KipuBank.sol\":6036:6058  s_balances[msg.sender] */\n      0x00\n        /* \"contracts/KipuBank.sol\":6047:6057  msg.sender */\n      caller\n        /* \"contracts/KipuBank.sol\":6036:6058  s_balances[msg.sender] */\n      0xffffffffffffffffffffffffffffffffffffffff\n      and\n      0xffffffffffffffffffffffffffffffffffffffff\n      and\n      dup2\n      mstore\n      0x20\n      add\n      swap1\n      dup2\n      mstore\n      0x20\n      add\n      0x00\n      keccak256\n      0x00\n        /* \"contracts/KipuBank.sol\":6036:6069  s_balances[msg.sender] -= amount_ */\n      dup3\n      dup3\n      sload\n      tag_90\n      swap2\n      swap1\n      tag_91\n      jump\t// in\n    tag_90:\n      swap3\n      pop\n      pop\n      dup2\n      swap1\n      sstore\n      pop\n        /* \"contracts/KipuBank.sol\":6080:6093  s_withdrawals */\n      0x02\n        /* \"contracts/KipuBank.sol\":6080:6105  s_withdrawals[msg.sender] */\n      0x00\n        /* \"contracts/KipuBank.sol\":6094:6104  msg.sender */\n      caller\n        /* \"contracts/KipuBank.sol\":6080:6105  s_withdrawals[msg.sender] */\n      0xffffffffffffffffffffffffffffffffffffffff\n      and\n      0xffffffffffffffffffffffffffffffffffffffff\n      and\n      dup2\n      mstore\n      0x20\n      add\n      swap1\n      dup2\n      mstore\n      0x20\n      add\n      0x00\n      keccak256\n      0x00\n        /* \"contracts/KipuBank.sol\":6080:6107  s_withdrawals[msg.sender]++ */\n      dup2\n      dup2\n      swap1\n      sload\n      swap1\n      0x0100\n      exp\n      swap1\n      div\n      0xffffffff\n      and\n      dup1\n      swap3\n      swap2\n      swap1\n      tag_92\n      swap1\n      tag_79\n      jump\t// in\n    tag_92:\n      swap2\n      swap1\n      0x0100\n      exp\n      dup2\n      sload\n      dup2\n      0xffffffff\n      mul\n      not\n      and\n      swap1\n      dup4\n      0xffffffff\n      and\n      mul\n      or\n      swap1\n      sstore\n      pop\n      pop\n        /* \"contracts/KipuBank.sol\":6128:6150  transferFunds(amount_) */\n      tag_93\n        /* \"contracts/KipuBank.sol\":6142:6149  amount_ */\n      dup2\n        /* \"contracts/KipuBank.sol\":6128:6141  transferFunds */\n      tag_94\n        /* \"contracts/KipuBank.sol\":6128:6150  transferFunds(amount_) */\n      jump\t// in\n    tag_93:\n        /* \"contracts/KipuBank.sol\":6176:6206  Extracted(msg.sender, amount_) */\n      0x69c169e5c85af54e1ca7e16608ccc812437821387924fb3353a7d053264ddaa0\n        /* \"contracts/KipuBank.sol\":6186:6196  msg.sender */\n      caller\n        /* \"contracts/KipuBank.sol\":6198:6205  amount_ */\n      dup3\n        /* \"contracts/KipuBank.sol\":6176:6206  Extracted(msg.sender, amount_) */\n      mload(0x40)\n      tag_95\n      swap3\n      swap2\n      swap1\n      tag_70\n      jump\t// in\n    tag_95:\n      mload(0x40)\n      dup1\n      swap2\n      sub\n      swap1\n      log1\n        /* \"contracts/KipuBank.sol\":5671:6222  function withdraw(uint amount_) public {... */\n      pop\n      jump\t// out\n        /* \"contracts/KipuBank.sol\":5199:5397  function getWithdrawals(address user_) external view returns(uint withdrawals_) {... */\n    tag_33:\n        /* \"contracts/KipuBank.sol\":5260:5277  uint withdrawals_ */\n      0x00\n        /* \"contracts/KipuBank.sol\":5310:5317  s_owner */\n      immutable(\"0xceebf77a833b30520287ddd9478ff51abbdffa30aa90a8d655dba0e8a79ce0c1\")\n        /* \"contracts/KipuBank.sol\":5298:5317  msg.sender==s_owner */\n      0xffffffffffffffffffffffffffffffffffffffff\n      and\n        /* \"contracts/KipuBank.sol\":5298:5308  msg.sender */\n      caller\n        /* \"contracts/KipuBank.sol\":5298:5317  msg.sender==s_owner */\n      0xffffffffffffffffffffffffffffffffffffffff\n      and\n      eq\n        /* \"contracts/KipuBank.sol\":5331:5341  msg.sender */\n      caller\n        /* \"contracts/KipuBank.sol\":5290:5343  require(msg.sender==s_owner,NotAnAuditor(msg.sender)) */\n      swap1\n      tag_97\n      jumpi\n      mload(0x40)\n      0xccb6416a00000000000000000000000000000000000000000000000000000000\n      dup2\n      mstore\n      0x04\n      add\n      tag_98\n      swap2\n      swap1\n      tag_62\n      jump\t// in\n    tag_98:\n      mload(0x40)\n      dup1\n      swap2\n      sub\n      swap1\n      revert\n    tag_97:\n      pop\n        /* \"contracts/KipuBank.sol\":5369:5382  s_withdrawals */\n      0x02\n        /* \"contracts/KipuBank.sol\":5369:5389  s_withdrawals[user_] */\n      0x00\n        /* \"contracts/KipuBank.sol\":5383:5388  user_ */\n      dup4\n        /* \"contracts/KipuBank.sol\":5369:5389  s_withdrawals[user_] */\n      0xffffffffffffffffffffffffffffffffffffffff\n      and\n      0xffffffffffffffffffffffffffffffffffffffff\n      and\n      dup2\n      mstore\n      0x20\n      add\n      swap1\n      dup2\n      mstore\n      0x20\n      add\n      0x00\n      keccak256\n      0x00\n      swap1\n      sload\n      swap1\n      0x0100\n      exp\n      swap1\n      div\n      0xffffffff\n      and\n        /* \"contracts/KipuBank.sol\":5354:5389  withdrawals_ = s_withdrawals[user_] */\n      0xffffffff\n      and\n      swap1\n      pop\n        /* \"contracts/KipuBank.sol\":5199:5397  function getWithdrawals(address user_) external view returns(uint withdrawals_) {... */\n      swap2\n      swap1\n      pop\n      jump\t// out\n        /* \"contracts/KipuBank.sol\":3988:4114  function getWithdrawals() external view returns(uint withdrawals_) {... */\n    tag_37:\n        /* \"contracts/KipuBank.sol\":4036:4053  uint withdrawals_ */\n      0x00\n        /* \"contracts/KipuBank.sol\":4081:4094  s_withdrawals */\n      0x02\n        /* \"contracts/KipuBank.sol\":4081:4106  s_withdrawals[msg.sender] */\n      0x00\n        /* \"contracts/KipuBank.sol\":4095:4105  msg.sender */\n      caller\n        /* \"contracts/KipuBank.sol\":4081:4106  s_withdrawals[msg.sender] */\n      0xffffffffffffffffffffffffffffffffffffffff\n      and\n      0xffffffffffffffffffffffffffffffffffffffff\n      and\n      dup2\n      mstore\n      0x20\n      add\n      swap1\n      dup2\n      mstore\n      0x20\n      add\n      0x00\n      keccak256\n      0x00\n      swap1\n      sload\n      swap1\n      0x0100\n      exp\n      swap1\n      div\n      0xffffffff\n      and\n        /* \"contracts/KipuBank.sol\":4066:4106  withdrawals_ = s_withdrawals[msg.sender] */\n      0xffffffff\n      and\n      swap1\n      pop\n        /* \"contracts/KipuBank.sol\":3988:4114  function getWithdrawals() external view returns(uint withdrawals_) {... */\n      swap1\n      jump\t// out\n        /* \"contracts/KipuBank.sol\":3765:3879  function getDeposits() external view returns(uint deposits_) {... */\n    tag_41:\n        /* \"contracts/KipuBank.sol\":3810:3824  uint deposits_ */\n      0x00\n        /* \"contracts/KipuBank.sol\":3849:3859  s_deposits */\n      0x01\n        /* \"contracts/KipuBank.sol\":3849:3871  s_deposits[msg.sender] */\n      0x00\n        /* \"contracts/KipuBank.sol\":3860:3870  msg.sender */\n      caller\n        /* \"contracts/KipuBank.sol\":3849:3871  s_deposits[msg.sender] */\n      0xffffffffffffffffffffffffffffffffffffffff\n      and\n      0xffffffffffffffffffffffffffffffffffffffff\n      and\n      dup2\n      mstore\n      0x20\n      add\n      swap1\n      dup2\n      mstore\n      0x20\n      add\n      0x00\n      keccak256\n      0x00\n      swap1\n      sload\n      swap1\n      0x0100\n      exp\n      swap1\n      div\n      0xffffffff\n      and\n        /* \"contracts/KipuBank.sol\":3837:3871  deposits_ = s_deposits[msg.sender] */\n      0xffffffff\n      and\n      swap1\n      pop\n        /* \"contracts/KipuBank.sol\":3765:3879  function getDeposits() external view returns(uint deposits_) {... */\n      swap1\n      jump\t// out\n        /* \"contracts/KipuBank.sol\":989:1051  uint128 public immutable s_withdrawLimit = 1000000000000000000 */\n    tag_45:\n      immutable(\"0x58a280f74f57bf051c40f060139dc747e015be52f68c57e2c4ab2e4bd4146f43\")\n      dup2\n      jump\t// out\n        /* \"contracts/KipuBank.sol\":898:932  uint128 public immutable s_bankCap */\n    tag_50:\n      immutable(\"0x1572b593c53d839d80004aa4b8c51211864104f06ace9e22be9c4365b50655ea\")\n      dup2\n      jump\t// out\n        /* \"contracts/KipuBank.sol\":4769:4955  function getDeposits(address user_) external view returns(uint deposits_) {... */\n    tag_55:\n        /* \"contracts/KipuBank.sol\":4827:4841  uint deposits_ */\n      0x00\n        /* \"contracts/KipuBank.sol\":4874:4881  s_owner */\n      immutable(\"0xceebf77a833b30520287ddd9478ff51abbdffa30aa90a8d655dba0e8a79ce0c1\")\n        /* \"contracts/KipuBank.sol\":4862:4881  msg.sender==s_owner */\n      0xffffffffffffffffffffffffffffffffffffffff\n      and\n        /* \"contracts/KipuBank.sol\":4862:4872  msg.sender */\n      caller\n        /* \"contracts/KipuBank.sol\":4862:4881  msg.sender==s_owner */\n      0xffffffffffffffffffffffffffffffffffffffff\n      and\n      eq\n        /* \"contracts/KipuBank.sol\":4895:4905  msg.sender */\n      caller\n        /* \"contracts/KipuBank.sol\":4854:4907  require(msg.sender==s_owner,NotAnAuditor(msg.sender)) */\n      swap1\n      tag_102\n      jumpi\n      mload(0x40)\n      0xccb6416a00000000000000000000000000000000000000000000000000000000\n      dup2\n      mstore\n      0x04\n      add\n      tag_103\n      swap2\n      swap1\n      tag_62\n      jump\t// in\n    tag_103:\n      mload(0x40)\n      dup1\n      swap2\n      sub\n      swap1\n      revert\n    tag_102:\n      pop\n        /* \"contracts/KipuBank.sol\":4930:4940  s_deposits */\n      0x01\n        /* \"contracts/KipuBank.sol\":4930:4947  s_deposits[user_] */\n      0x00\n        /* \"contracts/KipuBank.sol\":4941:4946  user_ */\n      dup4\n        /* \"contracts/KipuBank.sol\":4930:4947  s_deposits[user_] */\n      0xffffffffffffffffffffffffffffffffffffffff\n      and\n      0xffffffffffffffffffffffffffffffffffffffff\n      and\n      dup2\n      mstore\n      0x20\n      add\n      swap1\n      dup2\n      mstore\n      0x20\n      add\n      0x00\n      keccak256\n      0x00\n      swap1\n      sload\n      swap1\n      0x0100\n      exp\n      swap1\n      div\n      0xffffffff\n      and\n        /* \"contracts/KipuBank.sol\":4918:4947  deposits_ = s_deposits[user_] */\n      0xffffffff\n      and\n      swap1\n      pop\n        /* \"contracts/KipuBank.sol\":4769:4955  function getDeposits(address user_) external view returns(uint deposits_) {... */\n      swap2\n      swap1\n      pop\n      jump\t// out\n        /* \"contracts/KipuBank.sol\":376:408  address public immutable s_owner */\n    tag_60:\n      immutable(\"0xceebf77a833b30520287ddd9478ff51abbdffa30aa90a8d655dba0e8a79ce0c1\")\n      dup2\n      jump\t// out\n        /* \"contracts/KipuBank.sol\":4344:4527  function getBalance(address user_) external view returns(uint balance_) {... */\n    tag_66:\n        /* \"contracts/KipuBank.sol\":4401:4414  uint balance_ */\n      0x00\n        /* \"contracts/KipuBank.sol\":4447:4454  s_owner */\n      immutable(\"0xceebf77a833b30520287ddd9478ff51abbdffa30aa90a8d655dba0e8a79ce0c1\")\n        /* \"contracts/KipuBank.sol\":4435:4454  msg.sender==s_owner */\n      0xffffffffffffffffffffffffffffffffffffffff\n      and\n        /* \"contracts/KipuBank.sol\":4435:4445  msg.sender */\n      caller\n        /* \"contracts/KipuBank.sol\":4435:4454  msg.sender==s_owner */\n      0xffffffffffffffffffffffffffffffffffffffff\n      and\n      eq\n        /* \"contracts/KipuBank.sol\":4468:4478  msg.sender */\n      caller\n        /* \"contracts/KipuBank.sol\":4427:4480  require(msg.sender==s_owner,NotAnAuditor(msg.sender)) */\n      swap1\n      tag_105\n      jumpi\n      mload(0x40)\n      0xccb6416a00000000000000000000000000000000000000000000000000000000\n      dup2\n      mstore\n      0x04\n      add\n      tag_106\n      swap2\n      swap1\n      tag_62\n      jump\t// in\n    tag_106:\n      mload(0x40)\n      dup1\n      swap2\n      sub\n      swap1\n      revert\n    tag_105:\n      pop\n        /* \"contracts/KipuBank.sol\":4502:4512  s_balances */\n      0x00\n        /* \"contracts/KipuBank.sol\":4502:4519  s_balances[user_] */\n      0x00\n        /* \"contracts/KipuBank.sol\":4513:4518  user_ */\n      dup4\n        /* \"contracts/KipuBank.sol\":4502:4519  s_balances[user_] */\n      0xffffffffffffffffffffffffffffffffffffffff\n      and\n      0xffffffffffffffffffffffffffffffffffffffff\n      and\n      dup2\n      mstore\n      0x20\n      add\n      swap1\n      dup2\n      mstore\n      0x20\n      add\n      0x00\n      keccak256\n      sload\n        /* \"contracts/KipuBank.sol\":4491:4519  balance_ = s_balances[user_] */\n      swap1\n      pop\n        /* \"contracts/KipuBank.sol\":4344:4527  function getBalance(address user_) external view returns(uint balance_) {... */\n      swap2\n      swap1\n      pop\n      jump\t// out\n        /* \"contracts/KipuBank.sol\":6449:6666  function transferFunds(uint amount_) private {... */\n    tag_94:\n        /* \"contracts/KipuBank.sol\":6506:6518  bool success */\n      0x00\n        /* \"contracts/KipuBank.sol\":6520:6542  bytes memory errorData */\n      0x00\n        /* \"contracts/KipuBank.sol\":6546:6556  msg.sender */\n      caller\n        /* \"contracts/KipuBank.sol\":6546:6561  msg.sender.call */\n      0xffffffffffffffffffffffffffffffffffffffff\n      and\n        /* \"contracts/KipuBank.sol\":6569:6576  amount_ */\n      dup4\n        /* \"contracts/KipuBank.sol\":6546:6581  msg.sender.call{value: amount_}(\"\") */\n      mload(0x40)\n      tag_108\n      swap1\n      tag_109\n      jump\t// in\n    tag_108:\n      0x00\n      mload(0x40)\n      dup1\n      dup4\n      sub\n      dup2\n      dup6\n      dup8\n      gas\n      call\n      swap3\n      pop\n      pop\n      pop\n      returndatasize\n      dup1\n      0x00\n      dup2\n      eq\n      tag_112\n      jumpi\n      mload(0x40)\n      swap2\n      pop\n      and(add(returndatasize, 0x3f), not(0x1f))\n      dup3\n      add\n      0x40\n      mstore\n      returndatasize\n      dup3\n      mstore\n      returndatasize\n      0x00\n      0x20\n      dup5\n      add\n      returndatacopy\n      jump(tag_111)\n    tag_112:\n      0x60\n      swap2\n      pop\n    tag_111:\n      pop\n        /* \"contracts/KipuBank.sol\":6505:6581  (bool success, bytes memory errorData) = msg.sender.call{value: amount_}(\"\") */\n      swap2\n      pop\n      swap2\n      pop\n        /* \"contracts/KipuBank.sol\":6600:6607  success */\n      dup2\n        /* \"contracts/KipuBank.sol\":6628:6638  msg.sender */\n      caller\n        /* \"contracts/KipuBank.sol\":6639:6646  amount_ */\n      dup5\n        /* \"contracts/KipuBank.sol\":6647:6656  errorData */\n      dup4\n        /* \"contracts/KipuBank.sol\":6592:6658  require(success, ExtractionReverted(msg.sender,amount_,errorData)) */\n      swap1\n      swap2\n      swap3\n      tag_113\n      jumpi\n      mload(0x40)\n      0x3fd18b8500000000000000000000000000000000000000000000000000000000\n      dup2\n      mstore\n      0x04\n      add\n      tag_114\n      swap4\n      swap3\n      swap2\n      swap1\n      tag_115\n      jump\t// in\n    tag_114:\n      mload(0x40)\n      dup1\n      swap2\n      sub\n      swap1\n      revert\n    tag_113:\n      pop\n      pop\n      pop\n        /* \"contracts/KipuBank.sol\":6494:6666  {... */\n      pop\n      pop\n        /* \"contracts/KipuBank.sol\":6449:6666  function transferFunds(uint amount_) private {... */\n      pop\n      jump\t// out\n        /* \"#utility.yul\":7:84   */\n    tag_116:\n        /* \"#utility.yul\":44:51   */\n      0x00\n        /* \"#utility.yul\":73:78   */\n      dup2\n        /* \"#utility.yul\":62:78   */\n      swap1\n      pop\n        /* \"#utility.yul\":7:84   */\n      swap2\n      swap1\n      pop\n      jump\t// out\n        /* \"#utility.yul\":90:208   */\n    tag_117:\n        /* \"#utility.yul\":177:201   */\n      tag_143\n        /* \"#utility.yul\":195:200   */\n      dup2\n        /* \"#utility.yul\":177:201   */\n      tag_116\n      jump\t// in\n    tag_143:\n        /* \"#utility.yul\":172:175   */\n      dup3\n        /* \"#utility.yul\":165:202   */\n      mstore\n        /* \"#utility.yul\":90:208   */\n      pop\n      pop\n      jump\t// out\n        /* \"#utility.yul\":214:436   */\n    tag_23:\n        /* \"#utility.yul\":307:311   */\n      0x00\n        /* \"#utility.yul\":345:347   */\n      0x20\n        /* \"#utility.yul\":334:343   */\n      dup3\n        /* \"#utility.yul\":330:348   */\n      add\n        /* \"#utility.yul\":322:348   */\n      swap1\n      pop\n        /* \"#utility.yul\":358:429   */\n      tag_145\n        /* \"#utility.yul\":426:427   */\n      0x00\n        /* \"#utility.yul\":415:424   */\n      dup4\n        /* \"#utility.yul\":411:428   */\n      add\n        /* \"#utility.yul\":402:408   */\n      dup5\n        /* \"#utility.yul\":358:429   */\n      tag_117\n      jump\t// in\n    tag_145:\n        /* \"#utility.yul\":214:436   */\n      swap3\n      swap2\n      pop\n      pop\n      jump\t// out\n        /* \"#utility.yul\":523:640   */\n    tag_119:\n        /* \"#utility.yul\":632:633   */\n      0x00\n        /* \"#utility.yul\":629:630   */\n      0x00\n        /* \"#utility.yul\":622:634   */\n      revert\n        /* \"#utility.yul\":769:891   */\n    tag_121:\n        /* \"#utility.yul\":842:866   */\n      tag_150\n        /* \"#utility.yul\":860:865   */\n      dup2\n        /* \"#utility.yul\":842:866   */\n      tag_116\n      jump\t// in\n    tag_150:\n        /* \"#utility.yul\":835:840   */\n      dup2\n        /* \"#utility.yul\":832:867   */\n      eq\n        /* \"#utility.yul\":822:885   */\n      tag_151\n      jumpi\n        /* \"#utility.yul\":881:882   */\n      0x00\n        /* \"#utility.yul\":878:879   */\n      0x00\n        /* \"#utility.yul\":871:883   */\n      revert\n        /* \"#utility.yul\":822:885   */\n    tag_151:\n        /* \"#utility.yul\":769:891   */\n      pop\n      jump\t// out\n        /* \"#utility.yul\":897:1036   */\n    tag_122:\n        /* \"#utility.yul\":943:948   */\n      0x00\n        /* \"#utility.yul\":981:987   */\n      dup2\n        /* \"#utility.yul\":968:988   */\n      calldataload\n        /* \"#utility.yul\":959:988   */\n      swap1\n      pop\n        /* \"#utility.yul\":997:1030   */\n      tag_153\n        /* \"#utility.yul\":1024:1029   */\n      dup2\n        /* \"#utility.yul\":997:1030   */\n      tag_121\n      jump\t// in\n    tag_153:\n        /* \"#utility.yul\":897:1036   */\n      swap3\n      swap2\n      pop\n      pop\n      jump\t// out\n        /* \"#utility.yul\":1042:1371   */\n    tag_27:\n        /* \"#utility.yul\":1101:1107   */\n      0x00\n        /* \"#utility.yul\":1150:1152   */\n      0x20\n        /* \"#utility.yul\":1138:1147   */\n      dup3\n        /* \"#utility.yul\":1129:1136   */\n      dup5\n        /* \"#utility.yul\":1125:1148   */\n      sub\n        /* \"#utility.yul\":1121:1153   */\n      slt\n        /* \"#utility.yul\":1118:1237   */\n      iszero\n      tag_155\n      jumpi\n        /* \"#utility.yul\":1156:1235   */\n      tag_156\n      tag_119\n      jump\t// in\n    tag_156:\n        /* \"#utility.yul\":1118:1237   */\n    tag_155:\n        /* \"#utility.yul\":1276:1277   */\n      0x00\n        /* \"#utility.yul\":1301:1354   */\n      tag_157\n        /* \"#utility.yul\":1346:1353   */\n      dup5\n        /* \"#utility.yul\":1337:1343   */\n      dup3\n        /* \"#utility.yul\":1326:1335   */\n      dup6\n        /* \"#utility.yul\":1322:1344   */\n      add\n        /* \"#utility.yul\":1301:1354   */\n      tag_122\n      jump\t// in\n    tag_157:\n        /* \"#utility.yul\":1291:1354   */\n      swap2\n      pop\n        /* \"#utility.yul\":1247:1364   */\n      pop\n        /* \"#utility.yul\":1042:1371   */\n      swap3\n      swap2\n      pop\n      pop\n      jump\t// out\n        /* \"#utility.yul\":1377:1503   */\n    tag_123:\n        /* \"#utility.yul\":1414:1421   */\n      0x00\n        /* \"#utility.yul\":1454:1496   */\n      0xffffffffffffffffffffffffffffffffffffffff\n        /* \"#utility.yul\":1447:1452   */\n      dup3\n        /* \"#utility.yul\":1443:1497   */\n      and\n        /* \"#utility.yul\":1432:1497   */\n      swap1\n      pop\n        /* \"#utility.yul\":1377:1503   */\n      swap2\n      swap1\n      pop\n      jump\t// out\n        /* \"#utility.yul\":1509:1605   */\n    tag_124:\n        /* \"#utility.yul\":1546:1553   */\n      0x00\n        /* \"#utility.yul\":1575:1599   */\n      tag_160\n        /* \"#utility.yul\":1593:1598   */\n      dup3\n        /* \"#utility.yul\":1575:1599   */\n      tag_123\n      jump\t// in\n    tag_160:\n        /* \"#utility.yul\":1564:1599   */\n      swap1\n      pop\n        /* \"#utility.yul\":1509:1605   */\n      swap2\n      swap1\n      pop\n      jump\t// out\n        /* \"#utility.yul\":1611:1733   */\n    tag_125:\n        /* \"#utility.yul\":1684:1708   */\n      tag_162\n        /* \"#utility.yul\":1702:1707   */\n      dup2\n        /* \"#utility.yul\":1684:1708   */\n      tag_124\n      jump\t// in\n    tag_162:\n        /* \"#utility.yul\":1677:1682   */\n      dup2\n        /* \"#utility.yul\":1674:1709   */\n      eq\n        /* \"#utility.yul\":1664:1727   */\n      tag_163\n      jumpi\n        /* \"#utility.yul\":1723:1724   */\n      0x00\n        /* \"#utility.yul\":1720:1721   */\n      0x00\n        /* \"#utility.yul\":1713:1725   */\n      revert\n        /* \"#utility.yul\":1664:1727   */\n    tag_163:\n        /* \"#utility.yul\":1611:1733   */\n      pop\n      jump\t// out\n        /* \"#utility.yul\":1739:1878   */\n    tag_126:\n        /* \"#utility.yul\":1785:1790   */\n      0x00\n        /* \"#utility.yul\":1823:1829   */\n      dup2\n        /* \"#utility.yul\":1810:1830   */\n      calldataload\n        /* \"#utility.yul\":1801:1830   */\n      swap1\n      pop\n        /* \"#utility.yul\":1839:1872   */\n      tag_165\n        /* \"#utility.yul\":1866:1871   */\n      dup2\n        /* \"#utility.yul\":1839:1872   */\n      tag_125\n      jump\t// in\n    tag_165:\n        /* \"#utility.yul\":1739:1878   */\n      swap3\n      swap2\n      pop\n      pop\n      jump\t// out\n        /* \"#utility.yul\":1884:2213   */\n    tag_32:\n        /* \"#utility.yul\":1943:1949   */\n      0x00\n        /* \"#utility.yul\":1992:1994   */\n      0x20\n        /* \"#utility.yul\":1980:1989   */\n      dup3\n        /* \"#utility.yul\":1971:1978   */\n      dup5\n        /* \"#utility.yul\":1967:1990   */\n      sub\n        /* \"#utility.yul\":1963:1995   */\n      slt\n        /* \"#utility.yul\":1960:2079   */\n      iszero\n      tag_167\n      jumpi\n        /* \"#utility.yul\":1998:2077   */\n      tag_168\n      tag_119\n      jump\t// in\n    tag_168:\n        /* \"#utility.yul\":1960:2079   */\n    tag_167:\n        /* \"#utility.yul\":2118:2119   */\n      0x00\n        /* \"#utility.yul\":2143:2196   */\n      tag_169\n        /* \"#utility.yul\":2188:2195   */\n      dup5\n        /* \"#utility.yul\":2179:2185   */\n      dup3\n        /* \"#utility.yul\":2168:2177   */\n      dup6\n        /* \"#utility.yul\":2164:2186   */\n      add\n        /* \"#utility.yul\":2143:2196   */\n      tag_126\n      jump\t// in\n    tag_169:\n        /* \"#utility.yul\":2133:2196   */\n      swap2\n      pop\n        /* \"#utility.yul\":2089:2206   */\n      pop\n        /* \"#utility.yul\":1884:2213   */\n      swap3\n      swap2\n      pop\n      pop\n      jump\t// out\n        /* \"#utility.yul\":2219:2337   */\n    tag_127:\n        /* \"#utility.yul\":2256:2263   */\n      0x00\n        /* \"#utility.yul\":2296:2330   */\n      0xffffffffffffffffffffffffffffffff\n        /* \"#utility.yul\":2289:2294   */\n      dup3\n        /* \"#utility.yul\":2285:2331   */\n      and\n        /* \"#utility.yul\":2274:2331   */\n      swap1\n      pop\n        /* \"#utility.yul\":2219:2337   */\n      swap2\n      swap1\n      pop\n      jump\t// out\n        /* \"#utility.yul\":2343:2461   */\n    tag_128:\n        /* \"#utility.yul\":2430:2454   */\n      tag_172\n        /* \"#utility.yul\":2448:2453   */\n      dup2\n        /* \"#utility.yul\":2430:2454   */\n      tag_127\n      jump\t// in\n    tag_172:\n        /* \"#utility.yul\":2425:2428   */\n      dup3\n        /* \"#utility.yul\":2418:2455   */\n      mstore\n        /* \"#utility.yul\":2343:2461   */\n      pop\n      pop\n      jump\t// out\n        /* \"#utility.yul\":2467:2689   */\n    tag_47:\n        /* \"#utility.yul\":2560:2564   */\n      0x00\n        /* \"#utility.yul\":2598:2600   */\n      0x20\n        /* \"#utility.yul\":2587:2596   */\n      dup3\n        /* \"#utility.yul\":2583:2601   */\n      add\n        /* \"#utility.yul\":2575:2601   */\n      swap1\n      pop\n        /* \"#utility.yul\":2611:2682   */\n      tag_174\n        /* \"#utility.yul\":2679:2680   */\n      0x00\n        /* \"#utility.yul\":2668:2677   */\n      dup4\n        /* \"#utility.yul\":2664:2681   */\n      add\n        /* \"#utility.yul\":2655:2661   */\n      dup5\n        /* \"#utility.yul\":2611:2682   */\n      tag_128\n      jump\t// in\n    tag_174:\n        /* \"#utility.yul\":2467:2689   */\n      swap3\n      swap2\n      pop\n      pop\n      jump\t// out\n        /* \"#utility.yul\":2695:2813   */\n    tag_129:\n        /* \"#utility.yul\":2782:2806   */\n      tag_176\n        /* \"#utility.yul\":2800:2805   */\n      dup2\n        /* \"#utility.yul\":2782:2806   */\n      tag_124\n      jump\t// in\n    tag_176:\n        /* \"#utility.yul\":2777:2780   */\n      dup3\n        /* \"#utility.yul\":2770:2807   */\n      mstore\n        /* \"#utility.yul\":2695:2813   */\n      pop\n      pop\n      jump\t// out\n        /* \"#utility.yul\":2819:3041   */\n    tag_62:\n        /* \"#utility.yul\":2912:2916   */\n      0x00\n        /* \"#utility.yul\":2950:2952   */\n      0x20\n        /* \"#utility.yul\":2939:2948   */\n      dup3\n        /* \"#utility.yul\":2935:2953   */\n      add\n        /* \"#utility.yul\":2927:2953   */\n      swap1\n      pop\n        /* \"#utility.yul\":2963:3034   */\n      tag_178\n        /* \"#utility.yul\":3031:3032   */\n      0x00\n        /* \"#utility.yul\":3020:3029   */\n      dup4\n        /* \"#utility.yul\":3016:3033   */\n      add\n        /* \"#utility.yul\":3007:3013   */\n      dup5\n        /* \"#utility.yul\":2963:3034   */\n      tag_129\n      jump\t// in\n    tag_178:\n        /* \"#utility.yul\":2819:3041   */\n      swap3\n      swap2\n      pop\n      pop\n      jump\t// out\n        /* \"#utility.yul\":3047:3379   */\n    tag_70:\n        /* \"#utility.yul\":3168:3172   */\n      0x00\n        /* \"#utility.yul\":3206:3208   */\n      0x40\n        /* \"#utility.yul\":3195:3204   */\n      dup3\n        /* \"#utility.yul\":3191:3209   */\n      add\n        /* \"#utility.yul\":3183:3209   */\n      swap1\n      pop\n        /* \"#utility.yul\":3219:3290   */\n      tag_180\n        /* \"#utility.yul\":3287:3288   */\n      0x00\n        /* \"#utility.yul\":3276:3285   */\n      dup4\n        /* \"#utility.yul\":3272:3289   */\n      add\n        /* \"#utility.yul\":3263:3269   */\n      dup6\n        /* \"#utility.yul\":3219:3290   */\n      tag_129\n      jump\t// in\n    tag_180:\n        /* \"#utility.yul\":3300:3372   */\n      tag_181\n        /* \"#utility.yul\":3368:3370   */\n      0x20\n        /* \"#utility.yul\":3357:3366   */\n      dup4\n        /* \"#utility.yul\":3353:3371   */\n      add\n        /* \"#utility.yul\":3344:3350   */\n      dup5\n        /* \"#utility.yul\":3300:3372   */\n      tag_117\n      jump\t// in\n    tag_181:\n        /* \"#utility.yul\":3047:3379   */\n      swap4\n      swap3\n      pop\n      pop\n      pop\n      jump\t// out\n        /* \"#utility.yul\":3385:3565   */\n    tag_130:\n        /* \"#utility.yul\":3433:3510   */\n      0x4e487b7100000000000000000000000000000000000000000000000000000000\n        /* \"#utility.yul\":3430:3431   */\n      0x00\n        /* \"#utility.yul\":3423:3511   */\n      mstore\n        /* \"#utility.yul\":3530:3534   */\n      0x11\n        /* \"#utility.yul\":3527:3528   */\n      0x04\n        /* \"#utility.yul\":3520:3535   */\n      mstore\n        /* \"#utility.yul\":3554:3558   */\n      0x24\n        /* \"#utility.yul\":3551:3552   */\n      0x00\n        /* \"#utility.yul\":3544:3559   */\n      revert\n        /* \"#utility.yul\":3571:3762   */\n    tag_74:\n        /* \"#utility.yul\":3611:3614   */\n      0x00\n        /* \"#utility.yul\":3630:3650   */\n      tag_184\n        /* \"#utility.yul\":3648:3649   */\n      dup3\n        /* \"#utility.yul\":3630:3650   */\n      tag_116\n      jump\t// in\n    tag_184:\n        /* \"#utility.yul\":3625:3650   */\n      swap2\n      pop\n        /* \"#utility.yul\":3664:3684   */\n      tag_185\n        /* \"#utility.yul\":3682:3683   */\n      dup4\n        /* \"#utility.yul\":3664:3684   */\n      tag_116\n      jump\t// in\n    tag_185:\n        /* \"#utility.yul\":3659:3684   */\n      swap3\n      pop\n        /* \"#utility.yul\":3707:3708   */\n      dup3\n        /* \"#utility.yul\":3704:3705   */\n      dup3\n        /* \"#utility.yul\":3700:3709   */\n      add\n        /* \"#utility.yul\":3693:3709   */\n      swap1\n      pop\n        /* \"#utility.yul\":3728:3731   */\n      dup1\n        /* \"#utility.yul\":3725:3726   */\n      dup3\n        /* \"#utility.yul\":3722:3732   */\n      gt\n        /* \"#utility.yul\":3719:3755   */\n      iszero\n      tag_186\n      jumpi\n        /* \"#utility.yul\":3735:3753   */\n      tag_187\n      tag_130\n      jump\t// in\n    tag_187:\n        /* \"#utility.yul\":3719:3755   */\n    tag_186:\n        /* \"#utility.yul\":3571:3762   */\n      swap3\n      swap2\n      pop\n      pop\n      jump\t// out\n        /* \"#utility.yul\":3768:3861   */\n    tag_131:\n        /* \"#utility.yul\":3804:3811   */\n      0x00\n        /* \"#utility.yul\":3844:3854   */\n      0xffffffff\n        /* \"#utility.yul\":3837:3842   */\n      dup3\n        /* \"#utility.yul\":3833:3855   */\n      and\n        /* \"#utility.yul\":3822:3855   */\n      swap1\n      pop\n        /* \"#utility.yul\":3768:3861   */\n      swap2\n      swap1\n      pop\n      jump\t// out\n        /* \"#utility.yul\":3867:4042   */\n    tag_79:\n        /* \"#utility.yul\":3905:3908   */\n      0x00\n        /* \"#utility.yul\":3928:3951   */\n      tag_190\n        /* \"#utility.yul\":3945:3950   */\n      dup3\n        /* \"#utility.yul\":3928:3951   */\n      tag_131\n      jump\t// in\n    tag_190:\n        /* \"#utility.yul\":3919:3951   */\n      swap2\n      pop\n        /* \"#utility.yul\":3973:3983   */\n      0xffffffff\n        /* \"#utility.yul\":3966:3971   */\n      dup3\n        /* \"#utility.yul\":3963:3984   */\n      sub\n        /* \"#utility.yul\":3960:4007   */\n      tag_191\n      jumpi\n        /* \"#utility.yul\":3987:4005   */\n      tag_192\n      tag_130\n      jump\t// in\n    tag_192:\n        /* \"#utility.yul\":3960:4007   */\n    tag_191:\n        /* \"#utility.yul\":4034:4035   */\n      0x01\n        /* \"#utility.yul\":4027:4032   */\n      dup3\n        /* \"#utility.yul\":4023:4036   */\n      add\n        /* \"#utility.yul\":4016:4036   */\n      swap1\n      pop\n        /* \"#utility.yul\":3867:4042   */\n      swap2\n      swap1\n      pop\n      jump\t// out\n        /* \"#utility.yul\":4048:4242   */\n    tag_91:\n        /* \"#utility.yul\":4088:4092   */\n      0x00\n        /* \"#utility.yul\":4108:4128   */\n      tag_194\n        /* \"#utility.yul\":4126:4127   */\n      dup3\n        /* \"#utility.yul\":4108:4128   */\n      tag_116\n      jump\t// in\n    tag_194:\n        /* \"#utility.yul\":4103:4128   */\n      swap2\n      pop\n        /* \"#utility.yul\":4142:4162   */\n      tag_195\n        /* \"#utility.yul\":4160:4161   */\n      dup4\n        /* \"#utility.yul\":4142:4162   */\n      tag_116\n      jump\t// in\n    tag_195:\n        /* \"#utility.yul\":4137:4162   */\n      swap3\n      pop\n        /* \"#utility.yul\":4186:4187   */\n      dup3\n        /* \"#utility.yul\":4183:4184   */\n      dup3\n        /* \"#utility.yul\":4179:4188   */\n      sub\n        /* \"#utility.yul\":4171:4188   */\n      swap1\n      pop\n        /* \"#utility.yul\":4210:4211   */\n      dup2\n        /* \"#utility.yul\":4204:4208   */\n      dup2\n        /* \"#utility.yul\":4201:4212   */\n      gt\n        /* \"#utility.yul\":4198:4235   */\n      iszero\n      tag_196\n      jumpi\n        /* \"#utility.yul\":4215:4233   */\n      tag_197\n      tag_130\n      jump\t// in\n    tag_197:\n        /* \"#utility.yul\":4198:4235   */\n    tag_196:\n        /* \"#utility.yul\":4048:4242   */\n      swap3\n      swap2\n      pop\n      pop\n      jump\t// out\n        /* \"#utility.yul\":4248:4395   */\n    tag_132:\n        /* \"#utility.yul\":4349:4360   */\n      0x00\n        /* \"#utility.yul\":4386:4389   */\n      dup2\n        /* \"#utility.yul\":4371:4389   */\n      swap1\n      pop\n        /* \"#utility.yul\":4248:4395   */\n      swap3\n      swap2\n      pop\n      pop\n      jump\t// out\n        /* \"#utility.yul\":4401:4515   */\n    tag_133:\n      pop\n      jump\t// out\n        /* \"#utility.yul\":4521:4919   */\n    tag_134:\n        /* \"#utility.yul\":4680:4683   */\n      0x00\n        /* \"#utility.yul\":4701:4784   */\n      tag_201\n        /* \"#utility.yul\":4782:4783   */\n      0x00\n        /* \"#utility.yul\":4777:4780   */\n      dup4\n        /* \"#utility.yul\":4701:4784   */\n      tag_132\n      jump\t// in\n    tag_201:\n        /* \"#utility.yul\":4694:4784   */\n      swap2\n      pop\n        /* \"#utility.yul\":4793:4886   */\n      tag_202\n        /* \"#utility.yul\":4882:4885   */\n      dup3\n        /* \"#utility.yul\":4793:4886   */\n      tag_133\n      jump\t// in\n    tag_202:\n        /* \"#utility.yul\":4911:4912   */\n      0x00\n        /* \"#utility.yul\":4906:4909   */\n      dup3\n        /* \"#utility.yul\":4902:4913   */\n      add\n        /* \"#utility.yul\":4895:4913   */\n      swap1\n      pop\n        /* \"#utility.yul\":4521:4919   */\n      swap2\n      swap1\n      pop\n      jump\t// out\n        /* \"#utility.yul\":4925:5304   */\n    tag_109:\n        /* \"#utility.yul\":5109:5112   */\n      0x00\n        /* \"#utility.yul\":5131:5278   */\n      tag_204\n        /* \"#utility.yul\":5274:5277   */\n      dup3\n        /* \"#utility.yul\":5131:5278   */\n      tag_134\n      jump\t// in\n    tag_204:\n        /* \"#utility.yul\":5124:5278   */\n      swap2\n      pop\n        /* \"#utility.yul\":5295:5298   */\n      dup2\n        /* \"#utility.yul\":5288:5298   */\n      swap1\n      pop\n        /* \"#utility.yul\":4925:5304   */\n      swap2\n      swap1\n      pop\n      jump\t// out\n        /* \"#utility.yul\":5310:5408   */\n    tag_135:\n        /* \"#utility.yul\":5361:5367   */\n      0x00\n        /* \"#utility.yul\":5395:5400   */\n      dup2\n        /* \"#utility.yul\":5389:5401   */\n      mload\n        /* \"#utility.yul\":5379:5401   */\n      swap1\n      pop\n        /* \"#utility.yul\":5310:5408   */\n      swap2\n      swap1\n      pop\n      jump\t// out\n        /* \"#utility.yul\":5414:5582   */\n    tag_136:\n        /* \"#utility.yul\":5497:5508   */\n      0x00\n        /* \"#utility.yul\":5531:5537   */\n      dup3\n        /* \"#utility.yul\":5526:5529   */\n      dup3\n        /* \"#utility.yul\":5519:5538   */\n      mstore\n        /* \"#utility.yul\":5571:5575   */\n      0x20\n        /* \"#utility.yul\":5566:5569   */\n      dup3\n        /* \"#utility.yul\":5562:5576   */\n      add\n        /* \"#utility.yul\":5547:5576   */\n      swap1\n      pop\n        /* \"#utility.yul\":5414:5582   */\n      swap3\n      swap2\n      pop\n      pop\n      jump\t// out\n        /* \"#utility.yul\":5588:5727   */\n    tag_137:\n        /* \"#utility.yul\":5677:5683   */\n      dup3\n        /* \"#utility.yul\":5672:5675   */\n      dup2\n        /* \"#utility.yul\":5667:5670   */\n      dup4\n        /* \"#utility.yul\":5661:5684   */\n      mcopy\n        /* \"#utility.yul\":5718:5719   */\n      0x00\n        /* \"#utility.yul\":5709:5715   */\n      dup4\n        /* \"#utility.yul\":5704:5707   */\n      dup4\n        /* \"#utility.yul\":5700:5716   */\n      add\n        /* \"#utility.yul\":5693:5720   */\n      mstore\n        /* \"#utility.yul\":5588:5727   */\n      pop\n      pop\n      pop\n      jump\t// out\n        /* \"#utility.yul\":5733:5835   */\n    tag_138:\n        /* \"#utility.yul\":5774:5780   */\n      0x00\n        /* \"#utility.yul\":5825:5827   */\n      0x1f\n        /* \"#utility.yul\":5821:5828   */\n      not\n        /* \"#utility.yul\":5816:5818   */\n      0x1f\n        /* \"#utility.yul\":5809:5814   */\n      dup4\n        /* \"#utility.yul\":5805:5819   */\n      add\n        /* \"#utility.yul\":5801:5829   */\n      and\n        /* \"#utility.yul\":5791:5829   */\n      swap1\n      pop\n        /* \"#utility.yul\":5733:5835   */\n      swap2\n      swap1\n      pop\n      jump\t// out\n        /* \"#utility.yul\":5841:6214   */\n    tag_139:\n        /* \"#utility.yul\":5927:5930   */\n      0x00\n        /* \"#utility.yul\":5955:5993   */\n      tag_210\n        /* \"#utility.yul\":5987:5992   */\n      dup3\n        /* \"#utility.yul\":5955:5993   */\n      tag_135\n      jump\t// in\n    tag_210:\n        /* \"#utility.yul\":6009:6079   */\n      tag_211\n        /* \"#utility.yul\":6072:6078   */\n      dup2\n        /* \"#utility.yul\":6067:6070   */\n      dup6\n        /* \"#utility.yul\":6009:6079   */\n      tag_136\n      jump\t// in\n    tag_211:\n        /* \"#utility.yul\":6002:6079   */\n      swap4\n      pop\n        /* \"#utility.yul\":6088:6153   */\n      tag_212\n        /* \"#utility.yul\":6146:6152   */\n      dup2\n        /* \"#utility.yul\":6141:6144   */\n      dup6\n        /* \"#utility.yul\":6134:6138   */\n      0x20\n        /* \"#utility.yul\":6127:6132   */\n      dup7\n        /* \"#utility.yul\":6123:6139   */\n      add\n        /* \"#utility.yul\":6088:6153   */\n      tag_137\n      jump\t// in\n    tag_212:\n        /* \"#utility.yul\":6178:6207   */\n      tag_213\n        /* \"#utility.yul\":6200:6206   */\n      dup2\n        /* \"#utility.yul\":6178:6207   */\n      tag_138\n      jump\t// in\n    tag_213:\n        /* \"#utility.yul\":6173:6176   */\n      dup5\n        /* \"#utility.yul\":6169:6208   */\n      add\n        /* \"#utility.yul\":6162:6208   */\n      swap2\n      pop\n        /* \"#utility.yul\":5931:6214   */\n      pop\n        /* \"#utility.yul\":5841:6214   */\n      swap3\n      swap2\n      pop\n      pop\n      jump\t// out\n        /* \"#utility.yul\":6220:6749   */\n    tag_115:\n        /* \"#utility.yul\":6387:6391   */\n      0x00\n        /* \"#utility.yul\":6425:6427   */\n      0x60\n        /* \"#utility.yul\":6414:6423   */\n      dup3\n        /* \"#utility.yul\":6410:6428   */\n      add\n        /* \"#utility.yul\":6402:6428   */\n      swap1\n      pop\n        /* \"#utility.yul\":6438:6509   */\n      tag_215\n        /* \"#utility.yul\":6506:6507   */\n      0x00\n        /* \"#utility.yul\":6495:6504   */\n      dup4\n        /* \"#utility.yul\":6491:6508   */\n      add\n        /* \"#utility.yul\":6482:6488   */\n      dup7\n        /* \"#utility.yul\":6438:6509   */\n      tag_129\n      jump\t// in\n    tag_215:\n        /* \"#utility.yul\":6519:6591   */\n      tag_216\n        /* \"#utility.yul\":6587:6589   */\n      0x20\n        /* \"#utility.yul\":6576:6585   */\n      dup4\n        /* \"#utility.yul\":6572:6590   */\n      add\n        /* \"#utility.yul\":6563:6569   */\n      dup6\n        /* \"#utility.yul\":6519:6591   */\n      tag_117\n      jump\t// in\n    tag_216:\n        /* \"#utility.yul\":6638:6647   */\n      dup2\n        /* \"#utility.yul\":6632:6636   */\n      dup2\n        /* \"#utility.yul\":6628:6648   */\n      sub\n        /* \"#utility.yul\":6623:6625   */\n      0x40\n        /* \"#utility.yul\":6612:6621   */\n      dup4\n        /* \"#utility.yul\":6608:6626   */\n      add\n        /* \"#utility.yul\":6601:6649   */\n      mstore\n        /* \"#utility.yul\":6666:6742   */\n      tag_217\n        /* \"#utility.yul\":6737:6741   */\n      dup2\n        /* \"#utility.yul\":6728:6734   */\n      dup5\n        /* \"#utility.yul\":6666:6742   */\n      tag_139\n      jump\t// in\n    tag_217:\n        /* \"#utility.yul\":6658:6742   */\n      swap1\n      pop\n        /* \"#utility.yul\":6220:6749   */\n      swap5\n      swap4\n      pop\n      pop\n      pop\n      pop\n      jump\t// out\n\n    auxdata: 0xa26469706673582212203ec21bfa3ef7e5f0d992066cd5ffafab098502b256387015f40dd917cf46618764736f6c634300081e0033\n}\n",
				"bytecode": {
					"linkReferences": {},
					"object": "60e0604052670de0b6b3a76400006fffffffffffffffffffffffffffffffff1660c0906fffffffffffffffffffffffffffffffff16815250348015610042575f5ffd5b5060405161116538038061116583398181016040528101906100649190610113565b806fffffffffffffffffffffffffffffffff1660a0816fffffffffffffffffffffffffffffffff16815250503373ffffffffffffffffffffffffffffffffffffffff1660808173ffffffffffffffffffffffffffffffffffffffff16815250505061013e565b5f5ffd5b5f6fffffffffffffffffffffffffffffffff82169050919050565b6100f2816100ce565b81146100fc575f5ffd5b50565b5f8151905061010d816100e9565b92915050565b5f60208284031215610128576101276100ca565b5b5f610135848285016100ff565b91505092915050565b60805160a05160c051610fda61018b5f395f8181610632015261096001525f8181610319015261098401525f81816107c2015281816109a901528181610a950152610aba0152610fda5ff3fe60806040526004361061009f575f3560e01c80637f86ee43116100635780637f86ee431461019457806380ef10ed146101be57806394f649dd146101e8578063d0e30db014610224578063e39782401461022e578063f8b2cb4f14610258576100ae565b806312065fe0146100b25780632e1a7d4d146100dc5780633a2b643a1461010457806350d6c1e8146101405780636b149d871461016a576100ae565b366100ae576100ac610294565b005b5f5ffd5b3480156100bd575f5ffd5b506100c66104e3565b6040516100d39190610c61565b60405180910390f35b3480156100e7575f5ffd5b5061010260048036038101906100fd9190610ca8565b610526565b005b34801561010f575f5ffd5b5061012a60048036038101906101259190610d2d565b6107bf565b6040516101379190610c61565b60405180910390f35b34801561014b575f5ffd5b506101546108ac565b6040516101619190610c61565b60405180910390f35b348015610175575f5ffd5b5061017e610905565b60405161018b9190610c61565b60405180910390f35b34801561019f575f5ffd5b506101a861095e565b6040516101b59190610d82565b60405180910390f35b3480156101c9575f5ffd5b506101d2610982565b6040516101df9190610d82565b60405180910390f35b3480156101f3575f5ffd5b5061020e60048036038101906102099190610d2d565b6109a6565b60405161021b9190610c61565b60405180910390f35b61022c610294565b005b348015610239575f5ffd5b50610242610a93565b60405161024f9190610daa565b60405180910390f35b348015610263575f5ffd5b5061027e60048036038101906102799190610d2d565b610ab7565b60405161028b9190610c61565b60405180910390f35b7f55896b30a78fc55b78937f8014dde3f0035e9d37a4f6ac36841fb8b62f7e2b1333346040516102c5929190610dc3565b60405180910390a15f341133349091610315576040517facb26d8e00000000000000000000000000000000000000000000000000000000815260040161030c929190610dc3565b60405180910390fd5b50507f00000000000000000000000000000000000000000000000000000000000000006fffffffffffffffffffffffffffffffff165f5f3373ffffffffffffffffffffffffffffffffffffffff1673ffffffffffffffffffffffffffffffffffffffff1681526020019081526020015f2054346103929190610e17565b1115333490916103d9576040517facb26d8e0000000000000000000000000000000000000000000000000000000081526004016103d0929190610dc3565b60405180910390fd5b5050345f5f3373ffffffffffffffffffffffffffffffffffffffff1673ffffffffffffffffffffffffffffffffffffffff1681526020019081526020015f205f8282546104269190610e17565b9250508190555060015f3373ffffffffffffffffffffffffffffffffffffffff1673ffffffffffffffffffffffffffffffffffffffff1681526020019081526020015f205f81819054906101000a900463ffffffff168092919061048990610e59565b91906101000a81548163ffffffff021916908363ffffffff160217905550507f2da466a7b24304f47e87fa2e1e5a81b9831ce54fec19055ce277ca2f39ba42c433346040516104d9929190610dc3565b60405180910390a1565b5f5f5f3373ffffffffffffffffffffffffffffffffffffffff1673ffffffffffffffffffffffffffffffffffffffff1681526020019081526020015f2054905090565b7f3175035b120f22d7e7407b9f06f080ef0dbba46bb02a00e41a7b070b43cc8db93382604051610557929190610dc3565b60405180910390a15f8111338290916105a7576040517ff607410700000000000000000000000000000000000000000000000000000000815260040161059e929190610dc3565b60405180910390fd5b50505f5f3373ffffffffffffffffffffffffffffffffffffffff1673ffffffffffffffffffffffffffffffffffffffff1681526020019081526020015f20548111153382909161062e576040517ff6074107000000000000000000000000000000000000000000000000000000008152600401610625929190610dc3565b60405180910390fd5b50507f00000000000000000000000000000000000000000000000000000000000000006fffffffffffffffffffffffffffffffff16811115338290916106ab576040517ff60741070000000000000000000000000000000000000000000000000000000081526004016106a2929190610dc3565b60405180910390fd5b5050805f5f3373ffffffffffffffffffffffffffffffffffffffff1673ffffffffffffffffffffffffffffffffffffffff1681526020019081526020015f205f8282546106f89190610e84565b9250508190555060025f3373ffffffffffffffffffffffffffffffffffffffff1673ffffffffffffffffffffffffffffffffffffffff1681526020019081526020015f205f81819054906101000a900463ffffffff168092919061075b90610e59565b91906101000a81548163ffffffff021916908363ffffffff1602179055505061078381610b8e565b7f69c169e5c85af54e1ca7e16608ccc812437821387924fb3353a7d053264ddaa033826040516107b4929190610dc3565b60405180910390a150565b5f7f000000000000000000000000000000000000000000000000000000000000000073ffffffffffffffffffffffffffffffffffffffff163373ffffffffffffffffffffffffffffffffffffffff16143390610851576040517fccb6416a0000000000000000000000000000000000000000000000000000000081526004016108489190610daa565b60405180910390fd5b5060025f8373ffffffffffffffffffffffffffffffffffffffff1673ffffffffffffffffffffffffffffffffffffffff1681526020019081526020015f205f9054906101000a900463ffffffff1663ffffffff169050919050565b5f60025f3373ffffffffffffffffffffffffffffffffffffffff1673ffffffffffffffffffffffffffffffffffffffff1681526020019081526020015f205f9054906101000a900463ffffffff1663ffffffff16905090565b5f60015f3373ffffffffffffffffffffffffffffffffffffffff1673ffffffffffffffffffffffffffffffffffffffff1681526020019081526020015f205f9054906101000a900463ffffffff1663ffffffff16905090565b7f000000000000000000000000000000000000000000000000000000000000000081565b7f000000000000000000000000000000000000000000000000000000000000000081565b5f7f000000000000000000000000000000000000000000000000000000000000000073ffffffffffffffffffffffffffffffffffffffff163373ffffffffffffffffffffffffffffffffffffffff16143390610a38576040517fccb6416a000000000000000000000000000000000000000000000000000000008152600401610a2f9190610daa565b60405180910390fd5b5060015f8373ffffffffffffffffffffffffffffffffffffffff1673ffffffffffffffffffffffffffffffffffffffff1681526020019081526020015f205f9054906101000a900463ffffffff1663ffffffff169050919050565b7f000000000000000000000000000000000000000000000000000000000000000081565b5f7f000000000000000000000000000000000000000000000000000000000000000073ffffffffffffffffffffffffffffffffffffffff163373ffffffffffffffffffffffffffffffffffffffff16143390610b49576040517fccb6416a000000000000000000000000000000000000000000000000000000008152600401610b409190610daa565b60405180910390fd5b505f5f8373ffffffffffffffffffffffffffffffffffffffff1673ffffffffffffffffffffffffffffffffffffffff1681526020019081526020015f20549050919050565b5f5f3373ffffffffffffffffffffffffffffffffffffffff1683604051610bb490610ee4565b5f6040518083038185875af1925050503d805f8114610bee576040519150601f19603f3d011682016040523d82523d5f602084013e610bf3565b606091505b509150915081338483909192610c41576040517f3fd18b85000000000000000000000000000000000000000000000000000000008152600401610c3893929190610f68565b60405180910390fd5b505050505050565b5f819050919050565b610c5b81610c49565b82525050565b5f602082019050610c745f830184610c52565b92915050565b5f5ffd5b610c8781610c49565b8114610c91575f5ffd5b50565b5f81359050610ca281610c7e565b92915050565b5f60208284031215610cbd57610cbc610c7a565b5b5f610cca84828501610c94565b91505092915050565b5f73ffffffffffffffffffffffffffffffffffffffff82169050919050565b5f610cfc82610cd3565b9050919050565b610d0c81610cf2565b8114610d16575f5ffd5b50565b5f81359050610d2781610d03565b92915050565b5f60208284031215610d4257610d41610c7a565b5b5f610d4f84828501610d19565b91505092915050565b5f6fffffffffffffffffffffffffffffffff82169050919050565b610d7c81610d58565b82525050565b5f602082019050610d955f830184610d73565b92915050565b610da481610cf2565b82525050565b5f602082019050610dbd5f830184610d9b565b92915050565b5f604082019050610dd65f830185610d9b565b610de36020830184610c52565b9392505050565b7f4e487b71000000000000000000000000000000000000000000000000000000005f52601160045260245ffd5b5f610e2182610c49565b9150610e2c83610c49565b9250828201905080821115610e4457610e43610dea565b5b92915050565b5f63ffffffff82169050919050565b5f610e6382610e4a565b915063ffffffff8203610e7957610e78610dea565b5b600182019050919050565b5f610e8e82610c49565b9150610e9983610c49565b9250828203905081811115610eb157610eb0610dea565b5b92915050565b5f81905092915050565b50565b5f610ecf5f83610eb7565b9150610eda82610ec1565b5f82019050919050565b5f610eee82610ec4565b9150819050919050565b5f81519050919050565b5f82825260208201905092915050565b8281835e5f83830152505050565b5f601f19601f8301169050919050565b5f610f3a82610ef8565b610f448185610f02565b9350610f54818560208601610f12565b610f5d81610f20565b840191505092915050565b5f606082019050610f7b5f830186610d9b565b610f886020830185610c52565b8181036040830152610f9a8184610f30565b905094935050505056fea26469706673582212203ec21bfa3ef7e5f0d992066cd5ffafab098502b256387015f40dd917cf46618764736f6c634300081e0033",
					"opcodes": "PUSH1 0xE0 PUSH1 0x40 MSTORE PUSH8 0xDE0B6B3A7640000 PUSH16 0xFFFFFFFFFFFFFFFFFFFFFFFFFFFFFFFF AND PUSH1 0xC0 SWAP1 PUSH16 0xFFFFFFFFFFFFFFFFFFFFFFFFFFFFFFFF AND DUP2 MSTORE POP CALLVALUE DUP1 ISZERO PUSH2 0x42 JUMPI PUSH0 PUSH0 REVERT JUMPDEST POP PUSH1 0x40 MLOAD PUSH2 0x1165 CODESIZE SUB DUP1 PUSH2 0x1165 DUP4 CODECOPY DUP2 DUP2 ADD PUSH1 0x40 MSTORE DUP2 ADD SWAP1 PUSH2 0x64 SWAP2 SWAP1 PUSH2 0x113 JUMP JUMPDEST DUP1 PUSH16 0xFFFFFFFFFFFFFFFFFFFFFFFFFFFFFFFF AND PUSH1 0xA0 DUP2 PUSH16 0xFFFFFFFFFFFFFFFFFFFFFFFFFFFFFFFF AND DUP2 MSTORE POP POP CALLER PUSH20 0xFFFFFFFFFFFFFFFFFFFFFFFFFFFFFFFFFFFFFFFF AND PUSH1 0x80 DUP2 PUSH20 0xFFFFFFFFFFFFFFFFFFFFFFFFFFFFFFFFFFFFFFFF AND DUP2 MSTORE POP POP POP PUSH2 0x13E JUMP JUMPDEST PUSH0 PUSH0 REVERT JUMPDEST PUSH0 PUSH16 0xFFFFFFFFFFFFFFFFFFFFFFFFFFFFFFFF DUP3 AND SWAP1 POP SWAP2 SWAP1 POP JUMP JUMPDEST PUSH2 0xF2 DUP2 PUSH2 0xCE JUMP JUMPDEST DUP2 EQ PUSH2 0xFC JUMPI PUSH0 PUSH0 REVERT JUMPDEST POP JUMP JUMPDEST PUSH0 DUP2 MLOAD SWAP1 POP PUSH2 0x10D DUP2 PUSH2 0xE9 JUMP JUMPDEST SWAP3 SWAP2 POP POP JUMP JUMPDEST PUSH0 PUSH1 0x20 DUP3 DUP5 SUB SLT ISZERO PUSH2 0x128 JUMPI PUSH2 0x127 PUSH2 0xCA JUMP JUMPDEST JUMPDEST PUSH0 PUSH2 0x135 DUP5 DUP3 DUP6 ADD PUSH2 0xFF JUMP JUMPDEST SWAP2 POP POP SWAP3 SWAP2 POP POP JUMP JUMPDEST PUSH1 0x80 MLOAD PUSH1 0xA0 MLOAD PUSH1 0xC0 MLOAD PUSH2 0xFDA PUSH2 0x18B PUSH0 CODECOPY PUSH0 DUP2 DUP2 PUSH2 0x632 ADD MSTORE PUSH2 0x960 ADD MSTORE PUSH0 DUP2 DUP2 PUSH2 0x319 ADD MSTORE PUSH2 0x984 ADD MSTORE PUSH0 DUP2 DUP2 PUSH2 0x7C2 ADD MSTORE DUP2 DUP2 PUSH2 0x9A9 ADD MSTORE DUP2 DUP2 PUSH2 0xA95 ADD MSTORE PUSH2 0xABA ADD MSTORE PUSH2 0xFDA PUSH0 RETURN INVALID PUSH1 0x80 PUSH1 0x40 MSTORE PUSH1 0x4 CALLDATASIZE LT PUSH2 0x9F JUMPI PUSH0 CALLDATALOAD PUSH1 0xE0 SHR DUP1 PUSH4 0x7F86EE43 GT PUSH2 0x63 JUMPI DUP1 PUSH4 0x7F86EE43 EQ PUSH2 0x194 JUMPI DUP1 PUSH4 0x80EF10ED EQ PUSH2 0x1BE JUMPI DUP1 PUSH4 0x94F649DD EQ PUSH2 0x1E8 JUMPI DUP1 PUSH4 0xD0E30DB0 EQ PUSH2 0x224 JUMPI DUP1 PUSH4 0xE3978240 EQ PUSH2 0x22E JUMPI DUP1 PUSH4 0xF8B2CB4F EQ PUSH2 0x258 JUMPI PUSH2 0xAE JUMP JUMPDEST DUP1 PUSH4 0x12065FE0 EQ PUSH2 0xB2 JUMPI DUP1 PUSH4 0x2E1A7D4D EQ PUSH2 0xDC JUMPI DUP1 PUSH4 0x3A2B643A EQ PUSH2 0x104 JUMPI DUP1 PUSH4 0x50D6C1E8 EQ PUSH2 0x140 JUMPI DUP1 PUSH4 0x6B149D87 EQ PUSH2 0x16A JUMPI PUSH2 0xAE JUMP JUMPDEST CALLDATASIZE PUSH2 0xAE JUMPI PUSH2 0xAC PUSH2 0x294 JUMP JUMPDEST STOP JUMPDEST PUSH0 PUSH0 REVERT JUMPDEST CALLVALUE DUP1 ISZERO PUSH2 0xBD JUMPI PUSH0 PUSH0 REVERT JUMPDEST POP PUSH2 0xC6 PUSH2 0x4E3 JUMP JUMPDEST PUSH1 0x40 MLOAD PUSH2 0xD3 SWAP2 SWAP1 PUSH2 0xC61 JUMP JUMPDEST PUSH1 0x40 MLOAD DUP1 SWAP2 SUB SWAP1 RETURN JUMPDEST CALLVALUE DUP1 ISZERO PUSH2 0xE7 JUMPI PUSH0 PUSH0 REVERT JUMPDEST POP PUSH2 0x102 PUSH1 0x4 DUP1 CALLDATASIZE SUB DUP2 ADD SWAP1 PUSH2 0xFD SWAP2 SWAP1 PUSH2 0xCA8 JUMP JUMPDEST PUSH2 0x526 JUMP JUMPDEST STOP JUMPDEST CALLVALUE DUP1 ISZERO PUSH2 0x10F JUMPI PUSH0 PUSH0 REVERT JUMPDEST POP PUSH2 0x12A PUSH1 0x4 DUP1 CALLDATASIZE SUB DUP2 ADD SWAP1 PUSH2 0x125 SWAP2 SWAP1 PUSH2 0xD2D JUMP JUMPDEST PUSH2 0x7BF JUMP JUMPDEST PUSH1 0x40 MLOAD PUSH2 0x137 SWAP2 SWAP1 PUSH2 0xC61 JUMP JUMPDEST PUSH1 0x40 MLOAD DUP1 SWAP2 SUB SWAP1 RETURN JUMPDEST CALLVALUE DUP1 ISZERO PUSH2 0x14B JUMPI PUSH0 PUSH0 REVERT JUMPDEST POP PUSH2 0x154 PUSH2 0x8AC JUMP JUMPDEST PUSH1 0x40 MLOAD PUSH2 0x161 SWAP2 SWAP1 PUSH2 0xC61 JUMP JUMPDEST PUSH1 0x40 MLOAD DUP1 SWAP2 SUB SWAP1 RETURN JUMPDEST CALLVALUE DUP1 ISZERO PUSH2 0x175 JUMPI PUSH0 PUSH0 REVERT JUMPDEST POP PUSH2 0x17E PUSH2 0x905 JUMP JUMPDEST PUSH1 0x40 MLOAD PUSH2 0x18B SWAP2 SWAP1 PUSH2 0xC61 JUMP JUMPDEST PUSH1 0x40 MLOAD DUP1 SWAP2 SUB SWAP1 RETURN JUMPDEST CALLVALUE DUP1 ISZERO PUSH2 0x19F JUMPI PUSH0 PUSH0 REVERT JUMPDEST POP PUSH2 0x1A8 PUSH2 0x95E JUMP JUMPDEST PUSH1 0x40 MLOAD PUSH2 0x1B5 SWAP2 SWAP1 PUSH2 0xD82 JUMP JUMPDEST PUSH1 0x40 MLOAD DUP1 SWAP2 SUB SWAP1 RETURN JUMPDEST CALLVALUE DUP1 ISZERO PUSH2 0x1C9 JUMPI PUSH0 PUSH0 REVERT JUMPDEST POP PUSH2 0x1D2 PUSH2 0x982 JUMP JUMPDEST PUSH1 0x40 MLOAD PUSH2 0x1DF SWAP2 SWAP1 PUSH2 0xD82 JUMP JUMPDEST PUSH1 0x40 MLOAD DUP1 SWAP2 SUB SWAP1 RETURN JUMPDEST CALLVALUE DUP1 ISZERO PUSH2 0x1F3 JUMPI PUSH0 PUSH0 REVERT JUMPDEST POP PUSH2 0x20E PUSH1 0x4 DUP1 CALLDATASIZE SUB DUP2 ADD SWAP1 PUSH2 0x209 SWAP2 SWAP1 PUSH2 0xD2D JUMP JUMPDEST PUSH2 0x9A6 JUMP JUMPDEST PUSH1 0x40 MLOAD PUSH2 0x21B SWAP2 SWAP1 PUSH2 0xC61 JUMP JUMPDEST PUSH1 0x40 MLOAD DUP1 SWAP2 SUB SWAP1 RETURN JUMPDEST PUSH2 0x22C PUSH2 0x294 JUMP JUMPDEST STOP JUMPDEST CALLVALUE DUP1 ISZERO PUSH2 0x239 JUMPI PUSH0 PUSH0 REVERT JUMPDEST POP PUSH2 0x242 PUSH2 0xA93 JUMP JUMPDEST PUSH1 0x40 MLOAD PUSH2 0x24F SWAP2 SWAP1 PUSH2 0xDAA JUMP JUMPDEST PUSH1 0x40 MLOAD DUP1 SWAP2 SUB SWAP1 RETURN JUMPDEST CALLVALUE DUP1 ISZERO PUSH2 0x263 JUMPI PUSH0 PUSH0 REVERT JUMPDEST POP PUSH2 0x27E PUSH1 0x4 DUP1 CALLDATASIZE SUB DUP2 ADD SWAP1 PUSH2 0x279 SWAP2 SWAP1 PUSH2 0xD2D JUMP JUMPDEST PUSH2 0xAB7 JUMP JUMPDEST PUSH1 0x40 MLOAD PUSH2 0x28B SWAP2 SWAP1 PUSH2 0xC61 JUMP JUMPDEST PUSH1 0x40 MLOAD DUP1 SWAP2 SUB SWAP1 RETURN JUMPDEST PUSH32 0x55896B30A78FC55B78937F8014DDE3F0035E9D37A4F6AC36841FB8B62F7E2B13 CALLER CALLVALUE PUSH1 0x40 MLOAD PUSH2 0x2C5 SWAP3 SWAP2 SWAP1 PUSH2 0xDC3 JUMP JUMPDEST PUSH1 0x40 MLOAD DUP1 SWAP2 SUB SWAP1 LOG1 PUSH0 CALLVALUE GT CALLER CALLVALUE SWAP1 SWAP2 PUSH2 0x315 JUMPI PUSH1 0x40 MLOAD PUSH32 0xACB26D8E00000000000000000000000000000000000000000000000000000000 DUP2 MSTORE PUSH1 0x4 ADD PUSH2 0x30C SWAP3 SWAP2 SWAP1 PUSH2 0xDC3 JUMP JUMPDEST PUSH1 0x40 MLOAD DUP1 SWAP2 SUB SWAP1 REVERT JUMPDEST POP POP PUSH32 0x0 PUSH16 0xFFFFFFFFFFFFFFFFFFFFFFFFFFFFFFFF AND PUSH0 PUSH0 CALLER PUSH20 0xFFFFFFFFFFFFFFFFFFFFFFFFFFFFFFFFFFFFFFFF AND PUSH20 0xFFFFFFFFFFFFFFFFFFFFFFFFFFFFFFFFFFFFFFFF AND DUP2 MSTORE PUSH1 0x20 ADD SWAP1 DUP2 MSTORE PUSH1 0x20 ADD PUSH0 KECCAK256 SLOAD CALLVALUE PUSH2 0x392 SWAP2 SWAP1 PUSH2 0xE17 JUMP JUMPDEST GT ISZERO CALLER CALLVALUE SWAP1 SWAP2 PUSH2 0x3D9 JUMPI PUSH1 0x40 MLOAD PUSH32 0xACB26D8E00000000000000000000000000000000000000000000000000000000 DUP2 MSTORE PUSH1 0x4 ADD PUSH2 0x3D0 SWAP3 SWAP2 SWAP1 PUSH2 0xDC3 JUMP JUMPDEST PUSH1 0x40 MLOAD DUP1 SWAP2 SUB SWAP1 REVERT JUMPDEST POP POP CALLVALUE PUSH0 PUSH0 CALLER PUSH20 0xFFFFFFFFFFFFFFFFFFFFFFFFFFFFFFFFFFFFFFFF AND PUSH20 0xFFFFFFFFFFFFFFFFFFFFFFFFFFFFFFFFFFFFFFFF AND DUP2 MSTORE PUSH1 0x20 ADD SWAP1 DUP2 MSTORE PUSH1 0x20 ADD PUSH0 KECCAK256 PUSH0 DUP3 DUP3 SLOAD PUSH2 0x426 SWAP2 SWAP1 PUSH2 0xE17 JUMP JUMPDEST SWAP3 POP POP DUP2 SWAP1 SSTORE POP PUSH1 0x1 PUSH0 CALLER PUSH20 0xFFFFFFFFFFFFFFFFFFFFFFFFFFFFFFFFFFFFFFFF AND PUSH20 0xFFFFFFFFFFFFFFFFFFFFFFFFFFFFFFFFFFFFFFFF AND DUP2 MSTORE PUSH1 0x20 ADD SWAP1 DUP2 MSTORE PUSH1 0x20 ADD PUSH0 KECCAK256 PUSH0 DUP2 DUP2 SWAP1 SLOAD SWAP1 PUSH2 0x100 EXP SWAP1 DIV PUSH4 0xFFFFFFFF AND DUP1 SWAP3 SWAP2 SWAP1 PUSH2 0x489 SWAP1 PUSH2 0xE59 JUMP JUMPDEST SWAP2 SWAP1 PUSH2 0x100 EXP DUP2 SLOAD DUP2 PUSH4 0xFFFFFFFF MUL NOT AND SWAP1 DUP4 PUSH4 0xFFFFFFFF AND MUL OR SWAP1 SSTORE POP POP PUSH32 0x2DA466A7B24304F47E87FA2E1E5A81B9831CE54FEC19055CE277CA2F39BA42C4 CALLER CALLVALUE PUSH1 0x40 MLOAD PUSH2 0x4D9 SWAP3 SWAP2 SWAP1 PUSH2 0xDC3 JUMP JUMPDEST PUSH1 0x40 MLOAD DUP1 SWAP2 SUB SWAP1 LOG1 JUMP JUMPDEST PUSH0 PUSH0 PUSH0 CALLER PUSH20 0xFFFFFFFFFFFFFFFFFFFFFFFFFFFFFFFFFFFFFFFF AND PUSH20 0xFFFFFFFFFFFFFFFFFFFFFFFFFFFFFFFFFFFFFFFF AND DUP2 MSTORE PUSH1 0x20 ADD SWAP1 DUP2 MSTORE PUSH1 0x20 ADD PUSH0 KECCAK256 SLOAD SWAP1 POP SWAP1 JUMP JUMPDEST PUSH32 0x3175035B120F22D7E7407B9F06F080EF0DBBA46BB02A00E41A7B070B43CC8DB9 CALLER DUP3 PUSH1 0x40 MLOAD PUSH2 0x557 SWAP3 SWAP2 SWAP1 PUSH2 0xDC3 JUMP JUMPDEST PUSH1 0x40 MLOAD DUP1 SWAP2 SUB SWAP1 LOG1 PUSH0 DUP2 GT CALLER DUP3 SWAP1 SWAP2 PUSH2 0x5A7 JUMPI PUSH1 0x40 MLOAD PUSH32 0xF607410700000000000000000000000000000000000000000000000000000000 DUP2 MSTORE PUSH1 0x4 ADD PUSH2 0x59E SWAP3 SWAP2 SWAP1 PUSH2 0xDC3 JUMP JUMPDEST PUSH1 0x40 MLOAD DUP1 SWAP2 SUB SWAP1 REVERT JUMPDEST POP POP PUSH0 PUSH0 CALLER PUSH20 0xFFFFFFFFFFFFFFFFFFFFFFFFFFFFFFFFFFFFFFFF AND PUSH20 0xFFFFFFFFFFFFFFFFFFFFFFFFFFFFFFFFFFFFFFFF AND DUP2 MSTORE PUSH1 0x20 ADD SWAP1 DUP2 MSTORE PUSH1 0x20 ADD PUSH0 KECCAK256 SLOAD DUP2 GT ISZERO CALLER DUP3 SWAP1 SWAP2 PUSH2 0x62E JUMPI PUSH1 0x40 MLOAD PUSH32 0xF607410700000000000000000000000000000000000000000000000000000000 DUP2 MSTORE PUSH1 0x4 ADD PUSH2 0x625 SWAP3 SWAP2 SWAP1 PUSH2 0xDC3 JUMP JUMPDEST PUSH1 0x40 MLOAD DUP1 SWAP2 SUB SWAP1 REVERT JUMPDEST POP POP PUSH32 0x0 PUSH16 0xFFFFFFFFFFFFFFFFFFFFFFFFFFFFFFFF AND DUP2 GT ISZERO CALLER DUP3 SWAP1 SWAP2 PUSH2 0x6AB JUMPI PUSH1 0x40 MLOAD PUSH32 0xF607410700000000000000000000000000000000000000000000000000000000 DUP2 MSTORE PUSH1 0x4 ADD PUSH2 0x6A2 SWAP3 SWAP2 SWAP1 PUSH2 0xDC3 JUMP JUMPDEST PUSH1 0x40 MLOAD DUP1 SWAP2 SUB SWAP1 REVERT JUMPDEST POP POP DUP1 PUSH0 PUSH0 CALLER PUSH20 0xFFFFFFFFFFFFFFFFFFFFFFFFFFFFFFFFFFFFFFFF AND PUSH20 0xFFFFFFFFFFFFFFFFFFFFFFFFFFFFFFFFFFFFFFFF AND DUP2 MSTORE PUSH1 0x20 ADD SWAP1 DUP2 MSTORE PUSH1 0x20 ADD PUSH0 KECCAK256 PUSH0 DUP3 DUP3 SLOAD PUSH2 0x6F8 SWAP2 SWAP1 PUSH2 0xE84 JUMP JUMPDEST SWAP3 POP POP DUP2 SWAP1 SSTORE POP PUSH1 0x2 PUSH0 CALLER PUSH20 0xFFFFFFFFFFFFFFFFFFFFFFFFFFFFFFFFFFFFFFFF AND PUSH20 0xFFFFFFFFFFFFFFFFFFFFFFFFFFFFFFFFFFFFFFFF AND DUP2 MSTORE PUSH1 0x20 ADD SWAP1 DUP2 MSTORE PUSH1 0x20 ADD PUSH0 KECCAK256 PUSH0 DUP2 DUP2 SWAP1 SLOAD SWAP1 PUSH2 0x100 EXP SWAP1 DIV PUSH4 0xFFFFFFFF AND DUP1 SWAP3 SWAP2 SWAP1 PUSH2 0x75B SWAP1 PUSH2 0xE59 JUMP JUMPDEST SWAP2 SWAP1 PUSH2 0x100 EXP DUP2 SLOAD DUP2 PUSH4 0xFFFFFFFF MUL NOT AND SWAP1 DUP4 PUSH4 0xFFFFFFFF AND MUL OR SWAP1 SSTORE POP POP PUSH2 0x783 DUP2 PUSH2 0xB8E JUMP JUMPDEST PUSH32 0x69C169E5C85AF54E1CA7E16608CCC812437821387924FB3353A7D053264DDAA0 CALLER DUP3 PUSH1 0x40 MLOAD PUSH2 0x7B4 SWAP3 SWAP2 SWAP1 PUSH2 0xDC3 JUMP JUMPDEST PUSH1 0x40 MLOAD DUP1 SWAP2 SUB SWAP1 LOG1 POP JUMP JUMPDEST PUSH0 PUSH32 0x0 PUSH20 0xFFFFFFFFFFFFFFFFFFFFFFFFFFFFFFFFFFFFFFFF AND CALLER PUSH20 0xFFFFFFFFFFFFFFFFFFFFFFFFFFFFFFFFFFFFFFFF AND EQ CALLER SWAP1 PUSH2 0x851 JUMPI PUSH1 0x40 MLOAD PUSH32 0xCCB6416A00000000000000000000000000000000000000000000000000000000 DUP2 MSTORE PUSH1 0x4 ADD PUSH2 0x848 SWAP2 SWAP1 PUSH2 0xDAA JUMP JUMPDEST PUSH1 0x40 MLOAD DUP1 SWAP2 SUB SWAP1 REVERT JUMPDEST POP PUSH1 0x2 PUSH0 DUP4 PUSH20 0xFFFFFFFFFFFFFFFFFFFFFFFFFFFFFFFFFFFFFFFF AND PUSH20 0xFFFFFFFFFFFFFFFFFFFFFFFFFFFFFFFFFFFFFFFF AND DUP2 MSTORE PUSH1 0x20 ADD SWAP1 DUP2 MSTORE PUSH1 0x20 ADD PUSH0 KECCAK256 PUSH0 SWAP1 SLOAD SWAP1 PUSH2 0x100 EXP SWAP1 DIV PUSH4 0xFFFFFFFF AND PUSH4 0xFFFFFFFF AND SWAP1 POP SWAP2 SWAP1 POP JUMP JUMPDEST PUSH0 PUSH1 0x2 PUSH0 CALLER PUSH20 0xFFFFFFFFFFFFFFFFFFFFFFFFFFFFFFFFFFFFFFFF AND PUSH20 0xFFFFFFFFFFFFFFFFFFFFFFFFFFFFFFFFFFFFFFFF AND DUP2 MSTORE PUSH1 0x20 ADD SWAP1 DUP2 MSTORE PUSH1 0x20 ADD PUSH0 KECCAK256 PUSH0 SWAP1 SLOAD SWAP1 PUSH2 0x100 EXP SWAP1 DIV PUSH4 0xFFFFFFFF AND PUSH4 0xFFFFFFFF AND SWAP1 POP SWAP1 JUMP JUMPDEST PUSH0 PUSH1 0x1 PUSH0 CALLER PUSH20 0xFFFFFFFFFFFFFFFFFFFFFFFFFFFFFFFFFFFFFFFF AND PUSH20 0xFFFFFFFFFFFFFFFFFFFFFFFFFFFFFFFFFFFFFFFF AND DUP2 MSTORE PUSH1 0x20 ADD SWAP1 DUP2 MSTORE PUSH1 0x20 ADD PUSH0 KECCAK256 PUSH0 SWAP1 SLOAD SWAP1 PUSH2 0x100 EXP SWAP1 DIV PUSH4 0xFFFFFFFF AND PUSH4 0xFFFFFFFF AND SWAP1 POP SWAP1 JUMP JUMPDEST PUSH32 0x0 DUP2 JUMP JUMPDEST PUSH32 0x0 DUP2 JUMP JUMPDEST PUSH0 PUSH32 0x0 PUSH20 0xFFFFFFFFFFFFFFFFFFFFFFFFFFFFFFFFFFFFFFFF AND CALLER PUSH20 0xFFFFFFFFFFFFFFFFFFFFFFFFFFFFFFFFFFFFFFFF AND EQ CALLER SWAP1 PUSH2 0xA38 JUMPI PUSH1 0x40 MLOAD PUSH32 0xCCB6416A00000000000000000000000000000000000000000000000000000000 DUP2 MSTORE PUSH1 0x4 ADD PUSH2 0xA2F SWAP2 SWAP1 PUSH2 0xDAA JUMP JUMPDEST PUSH1 0x40 MLOAD DUP1 SWAP2 SUB SWAP1 REVERT JUMPDEST POP PUSH1 0x1 PUSH0 DUP4 PUSH20 0xFFFFFFFFFFFFFFFFFFFFFFFFFFFFFFFFFFFFFFFF AND PUSH20 0xFFFFFFFFFFFFFFFFFFFFFFFFFFFFFFFFFFFFFFFF AND DUP2 MSTORE PUSH1 0x20 ADD SWAP1 DUP2 MSTORE PUSH1 0x20 ADD PUSH0 KECCAK256 PUSH0 SWAP1 SLOAD SWAP1 PUSH2 0x100 EXP SWAP1 DIV PUSH4 0xFFFFFFFF AND PUSH4 0xFFFFFFFF AND SWAP1 POP SWAP2 SWAP1 POP JUMP JUMPDEST PUSH32 0x0 DUP2 JUMP JUMPDEST PUSH0 PUSH32 0x0 PUSH20 0xFFFFFFFFFFFFFFFFFFFFFFFFFFFFFFFFFFFFFFFF AND CALLER PUSH20 0xFFFFFFFFFFFFFFFFFFFFFFFFFFFFFFFFFFFFFFFF AND EQ CALLER SWAP1 PUSH2 0xB49 JUMPI PUSH1 0x40 MLOAD PUSH32 0xCCB6416A00000000000000000000000000000000000000000000000000000000 DUP2 MSTORE PUSH1 0x4 ADD PUSH2 0xB40 SWAP2 SWAP1 PUSH2 0xDAA JUMP JUMPDEST PUSH1 0x40 MLOAD DUP1 SWAP2 SUB SWAP1 REVERT JUMPDEST POP PUSH0 PUSH0 DUP4 PUSH20 0xFFFFFFFFFFFFFFFFFFFFFFFFFFFFFFFFFFFFFFFF AND PUSH20 0xFFFFFFFFFFFFFFFFFFFFFFFFFFFFFFFFFFFFFFFF AND DUP2 MSTORE PUSH1 0x20 ADD SWAP1 DUP2 MSTORE PUSH1 0x20 ADD PUSH0 KECCAK256 SLOAD SWAP1 POP SWAP2 SWAP1 POP JUMP JUMPDEST PUSH0 PUSH0 CALLER PUSH20 0xFFFFFFFFFFFFFFFFFFFFFFFFFFFFFFFFFFFFFFFF AND DUP4 PUSH1 0x40 MLOAD PUSH2 0xBB4 SWAP1 PUSH2 0xEE4 JUMP JUMPDEST PUSH0 PUSH1 0x40 MLOAD DUP1 DUP4 SUB DUP2 DUP6 DUP8 GAS CALL SWAP3 POP POP POP RETURNDATASIZE DUP1 PUSH0 DUP2 EQ PUSH2 0xBEE JUMPI PUSH1 0x40 MLOAD SWAP2 POP PUSH1 0x1F NOT PUSH1 0x3F RETURNDATASIZE ADD AND DUP3 ADD PUSH1 0x40 MSTORE RETURNDATASIZE DUP3 MSTORE RETURNDATASIZE PUSH0 PUSH1 0x20 DUP5 ADD RETURNDATACOPY PUSH2 0xBF3 JUMP JUMPDEST PUSH1 0x60 SWAP2 POP JUMPDEST POP SWAP2 POP SWAP2 POP DUP2 CALLER DUP5 DUP4 SWAP1 SWAP2 SWAP3 PUSH2 0xC41 JUMPI PUSH1 0x40 MLOAD PUSH32 0x3FD18B8500000000000000000000000000000000000000000000000000000000 DUP2 MSTORE PUSH1 0x4 ADD PUSH2 0xC38 SWAP4 SWAP3 SWAP2 SWAP1 PUSH2 0xF68 JUMP JUMPDEST PUSH1 0x40 MLOAD DUP1 SWAP2 SUB SWAP1 REVERT JUMPDEST POP POP POP POP POP POP JUMP JUMPDEST PUSH0 DUP2 SWAP1 POP SWAP2 SWAP1 POP JUMP JUMPDEST PUSH2 0xC5B DUP2 PUSH2 0xC49 JUMP JUMPDEST DUP3 MSTORE POP POP JUMP JUMPDEST PUSH0 PUSH1 0x20 DUP3 ADD SWAP1 POP PUSH2 0xC74 PUSH0 DUP4 ADD DUP5 PUSH2 0xC52 JUMP JUMPDEST SWAP3 SWAP2 POP POP JUMP JUMPDEST PUSH0 PUSH0 REVERT JUMPDEST PUSH2 0xC87 DUP2 PUSH2 0xC49 JUMP JUMPDEST DUP2 EQ PUSH2 0xC91 JUMPI PUSH0 PUSH0 REVERT JUMPDEST POP JUMP JUMPDEST PUSH0 DUP2 CALLDATALOAD SWAP1 POP PUSH2 0xCA2 DUP2 PUSH2 0xC7E JUMP JUMPDEST SWAP3 SWAP2 POP POP JUMP JUMPDEST PUSH0 PUSH1 0x20 DUP3 DUP5 SUB SLT ISZERO PUSH2 0xCBD JUMPI PUSH2 0xCBC PUSH2 0xC7A JUMP JUMPDEST JUMPDEST PUSH0 PUSH2 0xCCA DUP5 DUP3 DUP6 ADD PUSH2 0xC94 JUMP JUMPDEST SWAP2 POP POP SWAP3 SWAP2 POP POP JUMP JUMPDEST PUSH0 PUSH20 0xFFFFFFFFFFFFFFFFFFFFFFFFFFFFFFFFFFFFFFFF DUP3 AND SWAP1 POP SWAP2 SWAP1 POP JUMP JUMPDEST PUSH0 PUSH2 0xCFC DUP3 PUSH2 0xCD3 JUMP JUMPDEST SWAP1 POP SWAP2 SWAP1 POP JUMP JUMPDEST PUSH2 0xD0C DUP2 PUSH2 0xCF2 JUMP JUMPDEST DUP2 EQ PUSH2 0xD16 JUMPI PUSH0 PUSH0 REVERT JUMPDEST POP JUMP JUMPDEST PUSH0 DUP2 CALLDATALOAD SWAP1 POP PUSH2 0xD27 DUP2 PUSH2 0xD03 JUMP JUMPDEST SWAP3 SWAP2 POP POP JUMP JUMPDEST PUSH0 PUSH1 0x20 DUP3 DUP5 SUB SLT ISZERO PUSH2 0xD42 JUMPI PUSH2 0xD41 PUSH2 0xC7A JUMP JUMPDEST JUMPDEST PUSH0 PUSH2 0xD4F DUP5 DUP3 DUP6 ADD PUSH2 0xD19 JUMP JUMPDEST SWAP2 POP POP SWAP3 SWAP2 POP POP JUMP JUMPDEST PUSH0 PUSH16 0xFFFFFFFFFFFFFFFFFFFFFFFFFFFFFFFF DUP3 AND SWAP1 POP SWAP2 SWAP1 POP JUMP JUMPDEST PUSH2 0xD7C DUP2 PUSH2 0xD58 JUMP JUMPDEST DUP3 MSTORE POP POP JUMP JUMPDEST PUSH0 PUSH1 0x20 DUP3 ADD SWAP1 POP PUSH2 0xD95 PUSH0 DUP4 ADD DUP5 PUSH2 0xD73 JUMP JUMPDEST SWAP3 SWAP2 POP POP JUMP JUMPDEST PUSH2 0xDA4 DUP2 PUSH2 0xCF2 JUMP JUMPDEST DUP3 MSTORE POP POP JUMP JUMPDEST PUSH0 PUSH1 0x20 DUP3 ADD SWAP1 POP PUSH2 0xDBD PUSH0 DUP4 ADD DUP5 PUSH2 0xD9B JUMP JUMPDEST SWAP3 SWAP2 POP POP JUMP JUMPDEST PUSH0 PUSH1 0x40 DUP3 ADD SWAP1 POP PUSH2 0xDD6 PUSH0 DUP4 ADD DUP6 PUSH2 0xD9B JUMP JUMPDEST PUSH2 0xDE3 PUSH1 0x20 DUP4 ADD DUP5 PUSH2 0xC52 JUMP JUMPDEST SWAP4 SWAP3 POP POP POP JUMP JUMPDEST PUSH32 0x4E487B7100000000000000000000000000000000000000000000000000000000 PUSH0 MSTORE PUSH1 0x11 PUSH1 0x4 MSTORE PUSH1 0x24 PUSH0 REVERT JUMPDEST PUSH0 PUSH2 0xE21 DUP3 PUSH2 0xC49 JUMP JUMPDEST SWAP2 POP PUSH2 0xE2C DUP4 PUSH2 0xC49 JUMP JUMPDEST SWAP3 POP DUP3 DUP3 ADD SWAP1 POP DUP1 DUP3 GT ISZERO PUSH2 0xE44 JUMPI PUSH2 0xE43 PUSH2 0xDEA JUMP JUMPDEST JUMPDEST SWAP3 SWAP2 POP POP JUMP JUMPDEST PUSH0 PUSH4 0xFFFFFFFF DUP3 AND SWAP1 POP SWAP2 SWAP1 POP JUMP JUMPDEST PUSH0 PUSH2 0xE63 DUP3 PUSH2 0xE4A JUMP JUMPDEST SWAP2 POP PUSH4 0xFFFFFFFF DUP3 SUB PUSH2 0xE79 JUMPI PUSH2 0xE78 PUSH2 0xDEA JUMP JUMPDEST JUMPDEST PUSH1 0x1 DUP3 ADD SWAP1 POP SWAP2 SWAP1 POP JUMP JUMPDEST PUSH0 PUSH2 0xE8E DUP3 PUSH2 0xC49 JUMP JUMPDEST SWAP2 POP PUSH2 0xE99 DUP4 PUSH2 0xC49 JUMP JUMPDEST SWAP3 POP DUP3 DUP3 SUB SWAP1 POP DUP2 DUP2 GT ISZERO PUSH2 0xEB1 JUMPI PUSH2 0xEB0 PUSH2 0xDEA JUMP JUMPDEST JUMPDEST SWAP3 SWAP2 POP POP JUMP JUMPDEST PUSH0 DUP2 SWAP1 POP SWAP3 SWAP2 POP POP JUMP JUMPDEST POP JUMP JUMPDEST PUSH0 PUSH2 0xECF PUSH0 DUP4 PUSH2 0xEB7 JUMP JUMPDEST SWAP2 POP PUSH2 0xEDA DUP3 PUSH2 0xEC1 JUMP JUMPDEST PUSH0 DUP3 ADD SWAP1 POP SWAP2 SWAP1 POP JUMP JUMPDEST PUSH0 PUSH2 0xEEE DUP3 PUSH2 0xEC4 JUMP JUMPDEST SWAP2 POP DUP2 SWAP1 POP SWAP2 SWAP1 POP JUMP JUMPDEST PUSH0 DUP2 MLOAD SWAP1 POP SWAP2 SWAP1 POP JUMP JUMPDEST PUSH0 DUP3 DUP3 MSTORE PUSH1 0x20 DUP3 ADD SWAP1 POP SWAP3 SWAP2 POP POP JUMP JUMPDEST DUP3 DUP2 DUP4 MCOPY PUSH0 DUP4 DUP4 ADD MSTORE POP POP POP JUMP JUMPDEST PUSH0 PUSH1 0x1F NOT PUSH1 0x1F DUP4 ADD AND SWAP1 POP SWAP2 SWAP1 POP JUMP JUMPDEST PUSH0 PUSH2 0xF3A DUP3 PUSH2 0xEF8 JUMP JUMPDEST PUSH2 0xF44 DUP2 DUP6 PUSH2 0xF02 JUMP JUMPDEST SWAP4 POP PUSH2 0xF54 DUP2 DUP6 PUSH1 0x20 DUP7 ADD PUSH2 0xF12 JUMP JUMPDEST PUSH2 0xF5D DUP2 PUSH2 0xF20 JUMP JUMPDEST DUP5 ADD SWAP2 POP POP SWAP3 SWAP2 POP POP JUMP JUMPDEST PUSH0 PUSH1 0x60 DUP3 ADD SWAP1 POP PUSH2 0xF7B PUSH0 DUP4 ADD DUP7 PUSH2 0xD9B JUMP JUMPDEST PUSH2 0xF88 PUSH1 0x20 DUP4 ADD DUP6 PUSH2 0xC52 JUMP JUMPDEST DUP2 DUP2 SUB PUSH1 0x40 DUP4 ADD MSTORE PUSH2 0xF9A DUP2 DUP5 PUSH2 0xF30 JUMP JUMPDEST SWAP1 POP SWAP5 SWAP4 POP POP POP POP JUMP INVALID LOG2 PUSH5 0x6970667358 0x22 SLT KECCAK256 RETURNDATACOPY 0xC2 SHL STATICCALL RETURNDATACOPY 0xF7 JUMPF 0xF0D9 SWAP3 MOD PUSH13 0xD5FFAFAB098502B256387015F4 0xD 0xD9 OR 0xCF CHAINID PUSH2 0x8764 PUSH20 0x6F6C634300081E00330000000000000000000000 "
				},
				"gasEstimates": {
					"creation": {
						"codeDepositCost": "811600",
						"executionCost": "infinite",
						"totalCost": "infinite"
					},
					"external": {
						"deposit()": "infinite",
						"getBalance()": "2519",
						"getBalance(address)": "infinite",
						"getDeposits()": "2649",
						"getDeposits(address)": "infinite",
						"getWithdrawals()": "2627",
						"getWithdrawals(address)": "infinite",
						"s_bankCap()": "infinite",
						"s_owner()": "infinite",
						"s_withdrawLimit()": "infinite",
						"withdraw(uint256)": "infinite"
					},
					"internal": {
						"transferFunds(uint256)": "infinite"
					}
				},
				"methodIdentifiers": {
					"deposit()": "d0e30db0",
					"getBalance()": "12065fe0",
					"getBalance(address)": "f8b2cb4f",
					"getDeposits()": "6b149d87",
					"getDeposits(address)": "94f649dd",
					"getWithdrawals()": "50d6c1e8",
					"getWithdrawals(address)": "3a2b643a",
					"s_bankCap()": "80ef10ed",
					"s_owner()": "e3978240",
					"s_withdrawLimit()": "7f86ee43",
					"withdraw(uint256)": "2e1a7d4d"
				}
			},
			"storageLayout": {
				"storage": [
					{
						"astId": 10,
						"contract": "contracts/KipuBank.sol:KipuBank",
						"label": "s_balances",
						"offset": 0,
						"slot": "0",
						"type": "t_mapping(t_address,t_uint256)"
					},
					{
						"astId": 15,
						"contract": "contracts/KipuBank.sol:KipuBank",
						"label": "s_deposits",
						"offset": 0,
						"slot": "1",
						"type": "t_mapping(t_address,t_uint32)"
					},
					{
						"astId": 20,
						"contract": "contracts/KipuBank.sol:KipuBank",
						"label": "s_withdrawals",
						"offset": 0,
						"slot": "2",
						"type": "t_mapping(t_address,t_uint32)"
					}
				],
				"types": {
					"t_address": {
						"encoding": "inplace",
						"label": "address",
						"numberOfBytes": "20"
					},
					"t_mapping(t_address,t_uint256)": {
						"encoding": "mapping",
						"key": "t_address",
						"label": "mapping(address => uint256)",
						"numberOfBytes": "32",
						"value": "t_uint256"
					},
					"t_mapping(t_address,t_uint32)": {
						"encoding": "mapping",
						"key": "t_address",
						"label": "mapping(address => uint32)",
						"numberOfBytes": "32",
						"value": "t_uint32"
					},
					"t_uint256": {
						"encoding": "inplace",
						"label": "uint256",
						"numberOfBytes": "32"
					},
					"t_uint32": {
						"encoding": "inplace",
						"label": "uint32",
						"numberOfBytes": "4"
					}
				}
			},
			"userdoc": {
				"errors": {
					"DepositNotAllowed(address,uint256)": [
						{
							"notice": "Error emitido cuando se intenta depositar una cantidad inválida (=0, o la cuenta superaría el bankCap)"
						}
					],
					"ExtractionNotAllowed(address,uint256)": [
						{
							"notice": "Error emitido cuando se intenta extraer una cantidad inválda (<=0, >saldo, >límite)"
						}
					],
					"ExtractionReverted(address,uint256,bytes)": [
						{
							"notice": "Error emitido cuando falla una extracción"
						}
					],
					"NotAnAuditor(address)": [
						{
							"notice": "Error emitido al querer auditar y no tener el permiso"
						}
					]
				},
				"events": {
					"DepositRequest(address,uint256)": {
						"notice": "Evento emitido al intentar depositar"
					},
					"Deposited(address,uint256)": {
						"notice": "Evento emitido al depositar exitosamente"
					},
					"Extracted(address,uint256)": {
						"notice": "Evento emitido al extraer exitosamente"
					},
					"ExtractionRequest(address,uint256)": {
						"notice": "Evento emitido al intentar extraer"
					}
				},
				"kind": "user",
				"methods": {
					"deposit()": {
						"notice": "Función para hacer un depósitoSólo se puede depositar un valor mayor a 0, siempre que no se supere el bankCap"
					},
					"getBalance()": {
						"notice": "Función pública para ver el balance que uno mismo tiene"
					},
					"getBalance(address)": {
						"notice": "Función pública para ver el balance que algún usuario tiene"
					},
					"getDeposits()": {
						"notice": "Función pública para ver la cantidad de depósitos que uno hizo"
					},
					"getDeposits(address)": {
						"notice": "Función pública para ver la cantidad de depósitos que algún usuario hizo"
					},
					"getWithdrawals()": {
						"notice": "Función pública para ver la cantidad de extracciones que uno hizo"
					},
					"getWithdrawals(address)": {
						"notice": "Función pública para ver la cantidad de extracciones que algún usuario hizo"
					},
					"s_bankCap()": {
						"notice": "Límite de balance por cuenta"
					},
					"s_owner()": {
						"notice": "Dueño del contrato, auditor del mismo"
					},
					"s_withdrawLimit()": {
						"notice": "Límite de extracción por cuenta"
					},
					"withdraw(uint256)": {
						"notice": "Función para hacer un depósito"
					}
				},
				"notice": "Contrato para el TP Final del Módulo 2 del curso de EthKipuEs una simulación de banco con depósitos y extracción, auditable por el dueño del contrato",
				"version": 1
			}
		}
	}
}